3.04                 C                    M                      RINEX VERSION / TYPE
CCRNXC V5.3          AIUB                 02-OCT-20 13:04        PGM / RUN BY / DATE 
Center for Orbit Determination in Europe (CODE)                  COMMENT                  
Repro3 GNSS clock information for year-day 2019-014              COMMENT                  
Clock information consistent with phase and C1W/C2W code data    COMMENT                  
Satellite/receiver clock values at intervals of 30/300 sec       COMMENT                  
High-rate (30 sec) clock interpolation based on phase data       COMMENT                  
Product reference: DOI 10.7892/boris.135946                      COMMENT                  
   GPS                                                           TIME SYSTEM ID      
    18                                                           LEAP SECONDS GNSS   
E  CLKEST V5.3        IGS14                                      SYS / PCVS APPLIED  
G  CLKEST V5.3        IGS14                                      SYS / PCVS APPLIED  
R  CLKEST V5.3        IGS14                                      SYS / PCVS APPLIED  
E  CLKEST V5.3        CODE.BIA @ ftp.aiub.unibe.ch/CODE/         SYS / DCBS APPLIED  
G  CLKEST V5.3        CODE.BIA @ ftp.aiub.unibe.ch/CODE/         SYS / DCBS APPLIED  
R  CLKEST V5.3        CODE.BIA @ ftp.aiub.unibe.ch/CODE/         SYS / DCBS APPLIED  
     2    AR    AS                                               # / TYPES OF DATA   
COD  Center for Orbit Determination in Europe                    ANALYSIS CENTER     
     1                                                           # OF CLK REF        
PIE100USA 40456M001                           0.000000000000E+00 ANALYSIS CLK REF    
   318    IGS14                                                  # OF SOLN STA / TRF 
PIE100USA 40456M001           -1640917097 -5014781198  3575447025SOLN STA NAME / NUM 
ABPO00MDG 33302M001            4097216553  4429119192 -2065771194SOLN STA NAME / NUM 
ADIS00ETH 31502M001            4913652594  3945922823   995383505SOLN STA NAME / NUM 
AIRA00JPN 21742S001           -3530185850  4118797216  3344036727SOLN STA NAME / NUM 
AJAC00FRA 10077M005            4696989263   723994743  4239678726SOLN STA NAME / NUM 
ALBH00CAN 40129M003           -2341333097 -3539049538  4745791262SOLN STA NAME / NUM 
ALGO00CAN 40104M002             918129143 -4346071315  4561977902SOLN STA NAME / NUM 
ALIC00AUS 50137M001           -4052052714  4212835998 -2545104646SOLN STA NAME / NUM 
ALRT00CAN 40162M001             388042382  -740382457  6302001994SOLN STA NAME / NUM 
ANKR00TUR 20805M002            4121948421  2652187861  4069023872SOLN STA NAME / NUM 
ANTC00CHL 41713S001            1608538532 -4816370510 -3847798278SOLN STA NAME / NUM 
AREG00PER 42202M008            1942816415 -5804077171 -1796884361SOLN STA NAME / NUM 
AREQ00PER 42202M005            1942826278 -5804070364 -1796894122SOLN STA NAME / NUM 
ARTU00RUS 12362M001            1843956378  3016203237  5291261783SOLN STA NAME / NUM 
ASCG00SHN 30602M004            6121151582 -1563978948  -872615310SOLN STA NAME / NUM 
AUCK00NZL 50209M001           -5105681523   461563996 -3782181040SOLN STA NAME / NUM 
AXPV00FRA 10057M001            4614666728   430786758  4367411711SOLN STA NAME / NUM 
AZGB00USA 49541S001           -1890728098 -4984856378  3491254535SOLN STA NAME / NUM 
BAKE00CAN 40152M001            -289834275 -2756501168  5725162380SOLN STA NAME / NUM 
BAKO00IDN 23101M002           -1836969457  6065616950  -716257921SOLN STA NAME / NUM 
BARH00USA 49927S001            1693644619 -4239067595  4439567313SOLN STA NAME / NUM 
BBYS00SVK 11514M001            3980358578  1382292323  4772772105SOLN STA NAME / NUM 
BISK00CZE 11520M001            3898945740  1223993596  4881826606SOLN STA NAME / NUM 
BJCO00BEN 32701M001            6333076463   270973750   704552258SOLN STA NAME / NUM 
BJFS00CHN 21601M001           -2148744526  4426641170  4044655814SOLN STA NAME / NUM 
BJNM00CHN 21616M001           -2154287750  4373439982  4098885596SOLN STA NAME / NUM 
BNDY00AUS 50185M001           -5125977517  2688801267 -2669890266SOLN STA NAME / NUM 
BOAV00BRA 41636M001            3117452172 -5555487887   314480978SOLN STA NAME / NUM 
BOGO00POL 12207M002            3633738731  1397434348  5035353614SOLN STA NAME / NUM 
BOGT00COL 41901M001            1744398884 -6116037043   512731900SOLN STA NAME / NUM 
BRAZ00BRA 41606M001            4115014075 -4550641643 -1741443784SOLN STA NAME / NUM 
BREW00USA 40473M001           -2112007352 -3705351827  4726827045SOLN STA NAME / NUM 
BRMU00GBR 42501S004            2304703289 -4874817177  3395187055SOLN STA NAME / NUM 
BRST00FRA 10004M004            4231162420  -332746432  4745131075SOLN STA NAME / NUM 
BRUX00BEL 13101M010            4027881394   306998729  4919499020SOLN STA NAME / NUM 
BSHM00ISR 20705M001            4395951179  3080707238  3433498276SOLN STA NAME / NUM 
BZRG00ITA 12751M001            4312657285   864634908  4603844618SOLN STA NAME / NUM 
CAGS00CAN 40147M001            1096348830 -4335060653  4533255259SOLN STA NAME / NUM 
CAS100ATA 66011M001            -901776137  2409383236 -5816748543SOLN STA NAME / NUM 
CCJ200JPN 21732M002           -4490605169  3483895003  2884928317SOLN STA NAME / NUM 
CEDU00AUS 50138M001           -3753473166  3912741034 -3347959752SOLN STA NAME / NUM 
CEFE00BRA 41637M001            4562488503 -3871935895 -2200001340SOLN STA NAME / NUM 
CHOF00JPN 21788M001           -3946217148  3366689453  3698971767SOLN STA NAME / NUM 
CHPG00BRA 41609M004            4163476691 -4163821997 -2444511098SOLN STA NAME / NUM 
CHPI00BRA 41609M003            4164613910 -4162456987 -2445028645SOLN STA NAME / NUM 
CHTI00NZL 50242M001           -4607856209  -272375389 -4386954204SOLN STA NAME / NUM 
CHUR00CAN 40128M002            -236439127 -3307616944  5430049334SOLN STA NAME / NUM 
COCO00AUS 50127M001            -741951034  6190961717 -1337767428SOLN STA NAME / NUM 
CORD00ARG 41511M001            2345503858 -4910842919 -3316365232SOLN STA NAME / NUM 
COYQ00CHL 41715S001            1391587233 -4255574565 -4527925852SOLN STA NAME / NUM 
CPVG00CPV 39601M001            5626883449 -2380932372  1824483980SOLN STA NAME / NUM 
CPXF00USA 49642S001           -2332869781 -3696442620  4630011538SOLN STA NAME / NUM 
CRO100VIR 43201M001            2607771329 -5488076575  1932767964SOLN STA NAME / NUM 
CUT000AUS 59945M001           -2364337625  4870285650 -3360809480SOLN STA NAME / NUM 
DAEJ00KOR 23902M002           -3120042393  4084614693  3764026798SOLN STA NAME / NUM 
DARW00AUS 50134M001           -4091359588  4684606439 -1408579179SOLN STA NAME / NUM 
DAV100ATA 66010M001             486854582  2285099177 -5914955719SOLN STA NAME / NUM 
DGAR00GBR 30802M001            1916268809  6029977713  -801719442SOLN STA NAME / NUM 
DHLG00USA 49904M001           -2319099549 -4799846382  3490090428SOLN STA NAME / NUM 
DLF100NLD 13502M009            3924697649   301125254  5001905337SOLN STA NAME / NUM 
DOUR00BEL 13113M001            4086777956   328452222  4869782784SOLN STA NAME / NUM 
DRAO00CAN 40105M002           -2059165017 -3621108407  4814432237SOLN STA NAME / NUM 
DUBO00CAN 40137M001            -417603942 -4064529839  4881432125SOLN STA NAME / NUM 
DYNG00GRC 12602M006            4595220045  2039434172  3912625923SOLN STA NAME / NUM 
EBRE00ESP 13410M001            4833520001    41537381  4147461722SOLN STA NAME / NUM 
FAA100PYF 92201M012           -5247393616 -3076866472 -1911521060SOLN STA NAME / NUM 
FAIR00USA 40408M001           -2281621954 -1453595964  5756961713SOLN STA NAME / NUM 
FLIN00CAN 40135M001            -766174827 -3611375360  5184056189SOLN STA NAME / NUM 
FLRS00PRT 31907M001            4221529927 -2549242328  4031398429SOLN STA NAME / NUM 
FRDN00CAN 40146M001            1760542531 -4080068025  4560178640SOLN STA NAME / NUM 
FTNA00WLF 92902S002           -6178322521  -202694574 -1566024237SOLN STA NAME / NUM 
FUNC00PRT 13911S001            5143339214 -1563412522  3421191775SOLN STA NAME / NUM 
GANP00SVK 11515M001            3929181305  1455236954  4793654049SOLN STA NAME / NUM 
GLPS00ECU 42005M002             -33800948 -6377516525   -82154238SOLN STA NAME / NUM 
GLSV00UKR 12356M001            3512888692  2068980093  4888903322SOLN STA NAME / NUM 
GMSD00JPN 21749S002           -3607665479  4147867913  3223716969SOLN STA NAME / NUM 
GODE00USA 40451M123            1130773532 -4831253570  3994200457SOLN STA NAME / NUM 
GODZ00USA 40451M123            1130773532 -4831253573  3994200461SOLN STA NAME / NUM 
GOL200USA 40405S031           -2353614540 -4641385240  3676976384SOLN STA NAME / NUM 
GOP600CZE 11502M006            3979319106  1050312375  4857064719SOLN STA NAME / NUM 
GOPE00CZE 11502M002            3979315910  1050312710  4857067254SOLN STA NAME / NUM 
GRAC00FRA 10002M010            4581708162   556132898  4389341439SOLN STA NAME / NUM 
GRAS00FRA 10002M006            4581690716   556115102  4389360967SOLN STA NAME / NUM 
GRAZ00AUT 11001M002            4194423588  1162702943  4647245572SOLN STA NAME / NUM 
GUAM00GUM 50501M002           -5071312678  3568363630  1488904403SOLN STA NAME / NUM 
GUAT00GTM 40901S001             -56063530 -6174978648  1596665294SOLN STA NAME / NUM 
GUUG00GUM 82301M001           -5070465172  3576460288  1472093835SOLN STA NAME / NUM 
HARB00ZAF 30302M009            5084657619  2670325388 -2768480920SOLN STA NAME / NUM 
HERS00GBR 13212M007            4033469920    23673119  4924301455SOLN STA NAME / NUM 
HERT00GBR 13212M010            4033460743    23538034  4924318403SOLN STA NAME / NUM 
HLFX00CAN 40120M001            2018905542 -4069070519  4462415501SOLN STA NAME / NUM 
HNLC00USA 49970S001           -5506798908 -2240048657  2302720874SOLN STA NAME / NUM 
HNPT00USA 49913S001            1196626131 -4846358490  3956723138SOLN STA NAME / NUM 
HOB200AUS 50116M004           -3950072221  2522415360 -4311637455SOLN STA NAME / NUM 
HOFN00ISL 10204M002            2679689935  -727951003  5722789548SOLN STA NAME / NUM 
HOLB00CAN 40130M001           -2503040742 -3188233333  4908701429SOLN STA NAME / NUM 
HRAG00ZAF 30302M010            5085418041  2668226566 -2768758013SOLN STA NAME / NUM 
HRAO00ZAF 30302M004            5085352454  2668396120 -2768731308SOLN STA NAME / NUM 
HYDE00IND 22307M001            1208443988  5966805992  1897077352SOLN STA NAME / NUM 
IDDR00USA 49451M001           -1662651857 -4306563919  4389045266SOLN STA NAME / NUM 
IENG00ITA 12724S001            4476537232   600431696  4488761502SOLN STA NAME / NUM 
IISC00IND 22306M002            1337935848  6070317130  1427877272SOLN STA NAME / NUM 
IMPZ00GBR 41615M001            4289656385 -4680884999  -606347086SOLN STA NAME / NUM 
INEG00MEX 40507M001           -1260435710 -5788546775  2360339878SOLN STA NAME / NUM 
INVK00CAN 40150M001           -1628432388 -1714393090  5903844588SOLN STA NAME / NUM 
IQAL00CAN 40194M001            1036000842 -2631455602  5697819753SOLN STA NAME / NUM 
IRKJ00RUS 12313M002            -968328948  3794426506  5018167198SOLN STA NAME / NUM 
IRKM00RUS 12313M001            -968332759  3794425399  5018167676SOLN STA NAME / NUM 
ISBA00IRQ 20308M001            3808364573  3734430216  3485693709SOLN STA NAME / NUM 
JFNG00CHN 21602M006           -2279829056  5004706474  3219777402SOLN STA NAME / NUM 
JOG200IDN 23109M002           -2200208084  5924895508  -855929229SOLN STA NAME / NUM 
JOZ200POL 12204M002            3664880332  1409190812  5009618610SOLN STA NAME / NUM 
JOZE00POL 12204M001            3664939917  1409154078  5009571511SOLN STA NAME / NUM 
KARR00AUS 50139M001           -2713833236  5303935120 -2269513806SOLN STA NAME / NUM 
KERG00ATF 91201M002            1406337197  3918161099 -4816167393SOLN STA NAME / NUM 
KIR000SWE 10422M001            2248122968   865686835  5886425965SOLN STA NAME / NUM 
KIR800SWE 10422M002            2248126838   865685769  5886424677SOLN STA NAME / NUM 
KIRU00SWE 10403M002            2251420566   862817373  5885476878SOLN STA NAME / NUM 
KIT300UZB 12334M001            1944944769  4556652351  4004326056SOLN STA NAME / NUM 
KLOP00DEU 14214M002            4041875240   620655522  4878636975SOLN STA NAME / NUM 
KOKB00USA 40424M004           -5543838329 -2054585873  2387810415SOLN STA NAME / NUM 
KOKV00USA 40424M004           -5543838331 -2054585874  2387810416SOLN STA NAME / NUM 
KOUC00NCL 92727S001           -5751223132  1617967262 -2225743232SOLN STA NAME / NUM 
KOUG00GUF 97301M402            3855263308 -5049732019   563040521SOLN STA NAME / NUM 
KOUR00GUF 97301M210            3839591333 -5059567596   579957226SOLN STA NAME / NUM 
KRGG00ATF 91201M007            1406336184  3918154604 -4816172888SOLN STA NAME / NUM 
KZN200RUS 12374M001            2352345832  2717466571  5251459224SOLN STA NAME / NUM 
LAMA00POL 12209M001            3524522681  1329693836  5129846487SOLN STA NAME / NUM 
LAUT00FJI 50804M002           -6075194684   270923764 -1917189084SOLN STA NAME / NUM 
LEIJ00DEU 14267M001            3898736180   855345485  4958372599SOLN STA NAME / NUM 
LHAZ00CHN 21613M002            -106942096  5549269785  3139215212SOLN STA NAME / NUM 
LLAG00ESP 31302M003            5384906442 -1576770573  3023828091SOLN STA NAME / NUM 
LMMF00MTQ 97205M001            2993387394 -5399363848  1596748158SOLN STA NAME / NUM 
LPAL00ESP 81701M001            5326646225 -1719826008  3052043906SOLN STA NAME / NUM 
LPGS00ARG 41510M001            2780102998 -4437419029 -3629404372SOLN STA NAME / NUM 
M0SE00ITA 12772M001            4642432271  1028629683  4236854414SOLN STA NAME / NUM 
MAC100AUS 50135M001           -3464038880  1334173204 -5169223915SOLN STA NAME / NUM 
MAD200ESP 13407S012            4849202225  -360328698  4114913370SOLN STA NAME / NUM 
MADR00ESP 13407S012            4849202238  -360328696  4114913380SOLN STA NAME / NUM 
MAG000RUS 12354M001           -2825810568  1581232920  5477005333SOLN STA NAME / NUM 
MAJU00MHL 51501M001           -6257572138   950333417   785215572SOLN STA NAME / NUM 
MANA00NIC 41201S001             407981938 -6222925652  1333529089SOLN STA NAME / NUM 
MAO000USA 40445M005           -5466067151 -2404332812  2242123306SOLN STA NAME / NUM 
MAR600SWE 10405M002            2998189244   931451981  5533398884SOLN STA NAME / NUM 
MAR700SWE 10405M003            2998198268   931450098  5533393029SOLN STA NAME / NUM 
MARS00FRA 10073M008            4630532575   433946576  4350142900SOLN STA NAME / NUM 
MAS100ESP 31303M002            5439192159 -1522055232  2953455064SOLN STA NAME / NUM 
MAT100ITA 12734M009            4641951197  1393053926  4133281075SOLN STA NAME / NUM 
MATE00ITA 12734M008            4641949303  1393045692  4133287674SOLN STA NAME / NUM 
MAUI00USA 40445S008           -5466069076 -2404327210  2242127893SOLN STA NAME / NUM 
MAW100ATA 66004M001            1111287208  2168911195 -5874493606SOLN STA NAME / NUM 
MAYG00MYT 90101M001            4379104383  4418744599 -1401897822SOLN STA NAME / NUM 
MCM400ATA 66001M003           -1311703050   310814835 -6213255157SOLN STA NAME / NUM 
MDO100USA 40442M012           -1329998950 -5328393357  3236504087SOLN STA NAME / NUM 
MDVJ00RUS 12309M005            2845455789  2160954421  5265993329SOLN STA NAME / NUM 
MEDI00ITA 12711M003            4461400496   919593844  4449504937SOLN STA NAME / NUM 
METG00FIN 10503M002            2890652381  1310295649  5513958954SOLN STA NAME / NUM 
METS00FIN 10503S011            2892570552  1311843646  5512634277SOLN STA NAME / NUM 
MGUE00ARG 41558M001            1823327821 -4850352547 -3709085456SOLN STA NAME / NUM 
MIZU00JPN 21702M002           -3857170886  3108692908  4004040222SOLN STA NAME / NUM 
MKEA00USA 40477M001           -5464105395 -2495165509  2148291637SOLN STA NAME / NUM 
MOBJ00RUS 12365M002            2936424362  2178374227  5208858545SOLN STA NAME / NUM 
MOBK00RUS 12365M002            2936424356  2178374222  5208858541SOLN STA NAME / NUM 
MOBN00RUS 12365M001            2936431758  2178364731  5208858344SOLN STA NAME / NUM 
MOBS00AUS 50182M001           -4130636732  2894953138 -3890530289SOLN STA NAME / NUM 
MONP00USA 40497M004           -2386247541 -4802359018  3444902440SOLN STA NAME / NUM 
MORP00GBR 13299S001            3645667662  -107277016  5215053674SOLN STA NAME / NUM 
MQZG00NZL 50214M001           -4580569797   590466309 -4384379711SOLN STA NAME / NUM 
MRO100AUS 59913M001           -2556630007  5097138289 -2848384838SOLN STA NAME / NUM 
MTKA00JPN 21741S002           -3947763157  3364399475  3699428531SOLN STA NAME / NUM 
MYVA00ISL 10205M001            2524224492  -766501942  5787949758SOLN STA NAME / NUM 
NAIN00CAN 40164M001            1671836403 -3103473335  5297671355SOLN STA NAME / NUM 
NANO00CAN 40138M001           -2335726964 -3451608356  4812009889SOLN STA NAME / NUM 
NAUR00NRU 50701M001           -6212554923  1442787606   -61006345SOLN STA NAME / NUM 
NICO00CYP 14302M001            4359415467  2874117225  3650778012SOLN STA NAME / NUM 
NIST00USA 49507M002           -1288398512 -4721696926  4078625350SOLN STA NAME / NUM 
NIUM00NIU 50210M001           -5937160913 -1054675227 -2071386028SOLN STA NAME / NUM 
NKLG00GAB 32809M002            6287385716  1071574840    39133179SOLN STA NAME / NUM 
NLIB00USA 40465M001            -130934827 -4762291699  4226854615SOLN STA NAME / NUM 
NNOR00AUS 50181M001           -2414152345  4907778637 -3270644256SOLN STA NAME / NUM 
NOT100ITA 12717M004            4934545983  1321265255  3806456334SOLN STA NAME / NUM 
NOVM00RUS 12367M002             452260729  3635877595  5203453322SOLN STA NAME / NUM 
NRC100CAN 40114M001            1112776972 -4341475899  4522955870SOLN STA NAME / NUM 
NRIL00RUS 12364M001              64536874  2253782913  5946363521SOLN STA NAME / NUM 
NRMD00NCL 92701M005           -5743538113  1380503889 -2397896059SOLN STA NAME / NUM 
NTUS00SGP 22601M001           -1508023209  6195576554   148799331SOLN STA NAME / NUM 
NYA100NOR 10317M003            1202433638   252632393  6237772758SOLN STA NAME / NUM 
NYA200NOR 10317M008            1202379291   252474661  6237786585SOLN STA NAME / NUM 
NYAL00NOR 10317M001            1202430333   252626809  6237767792SOLN STA NAME / NUM 
OHI200ATA 66008M005            1525812126 -2432478233 -5676165555SOLN STA NAME / NUM 
OHI300ATA 66008M006            1525809292 -2432478748 -5676166250SOLN STA NAME / NUM 
ONS100SWE 10402M007            3370666722   711819124  5349788249SOLN STA NAME / NUM 
ONSA00SWE 10402M004            3370658347   711877338  5349787103SOLN STA NAME / NUM 
OPMT00FRA 10001S006            4202777193   171368245  4778660353SOLN STA NAME / NUM 
OUS200NZL 50212M002           -4387891056   733420937 -4555176051SOLN STA NAME / NUM 
PADO00ITA 12750S001            4388881792   924567712  4519588894SOLN STA NAME / NUM 
PARC00CHL 41716S001            1255992553 -3622975238 -5079719169SOLN STA NAME / NUM 
PARK00AUS 50108M001           -4554255186  2816652449 -3454059754SOLN STA NAME / NUM 
PBRI00IND 22308M001            -295635915  6240848797  1278178542SOLN STA NAME / NUM 
PDEL00PRT 31906M004            4551595890 -2186892898  3883411007SOLN STA NAME / NUM 
PENC00HUN 11206M006            4052449235  1417681370  4701407257SOLN STA NAME / NUM 
PERT00AUS 50133M001           -2368688000  4881316691 -3341795028SOLN STA NAME / NUM 
PETS00RUS 12355M003           -3580828387  1399698234  5072185034SOLN STA NAME / NUM 
PFA200AUT 11005M003            4253559694   733545203  4681452995SOLN STA NAME / NUM 
PIMO00PHL 22003M001           -3186293584  5286624416  1601158391SOLN STA NAME / NUM 
POHN00FSM 51601M001           -5879158294  2350292707   767748587SOLN STA NAME / NUM 
POL200KGZ 12348M001            1239970986  4530790156  4302578872SOLN STA NAME / NUM 
POLV00UKR 12336M001            3411557060  2348464166  4834396998SOLN STA NAME / NUM 
POTS00DEU 14106M003            3800689421   882077608  5028791464SOLN STA NAME / NUM 
POVE00BRA 41628M001            2774265583 -5662060178  -959415755SOLN STA NAME / NUM 
PRDS00CAN 40124M001           -1659603212 -3676725789  4925493458SOLN STA NAME / NUM 
PTAG00PHL 22006M005           -3184318646  5291065557  1590418270SOLN STA NAME / NUM 
PTBB00DEU 14234M001            3844059754   709661544  5023129702SOLN STA NAME / NUM 
QAQ100GRL 43007M001            2170941844 -2251830035  5539988498SOLN STA NAME / NUM 
QUIN00USA 40433M004           -2517231430 -4198594972  4076531172SOLN STA NAME / NUM 
RABT00MAR 35001M002            5255617563  -631745445  3546322759SOLN STA NAME / NUM 
RBAY00ZAF 30315M001            4739765772  2970758549 -3054077461SOLN STA NAME / NUM 
REDU00BEL 13102M001            4091423159   368380825  4863179941SOLN STA NAME / NUM 
REUN00REU 97401M003            3364098930  4907944648 -2293466694SOLN STA NAME / NUM 
REYK00ISL 10202M001            2587384008 -1043033556  5716564142SOLN STA NAME / NUM 
RGDG00ARG 41507M007            1429870449 -3495334835 -5122722977SOLN STA NAME / NUM 
RIO200ARG 41507M006            1429907889 -3495354930 -5122698545SOLN STA NAME / NUM 
RIOP00ECU 42006M001            1255144953 -6253609446  -182569699SOLN STA NAME / NUM 
ROTH00ATA 66007M003             909246228 -2264764185 -5873056301SOLN STA NAME / NUM 
SALU00BRA 41640M001            4566947858 -4443098559  -286674561SOLN STA NAME / NUM 
SAMO00WSM 50603M001           -6129702406  -890028579 -1516806814SOLN STA NAME / NUM 
SANT00CHL 41705M003            1769693427 -5044574289 -3468320891SOLN STA NAME / NUM 
SASS00DEU 14281M001            3606145860   875303564  5170194083SOLN STA NAME / NUM 
SAVO00BRA 41643M001            4870283753 -3864605375 -1418872382SOLN STA NAME / NUM 
SCH200CAN 40133M002            1448636533 -3385243786  5191047217SOLN STA NAME / NUM 
SCOR00GRL 43006M002            1982095790  -798821022  5989464664SOLN STA NAME / NUM 
SCRZ00BOL 41801M001            2743005918 -5420745281 -1937116995SOLN STA NAME / NUM 
SCTB00ATA 66071M001           -1311028643   308512491 -6213390875SOLN STA NAME / NUM 
SEYG00SYC 39801M004            3597835912  5240884098  -516780961SOLN STA NAME / NUM 
SFER00ESP 13402M004            5105518881  -555145628  3769803574SOLN STA NAME / NUM 
SHAO00CHN 21605M002           -2831733941  4675665771  3275369264SOLN STA NAME / NUM 
SOFI00BGR 11101M002            4319371859  1868688043  4292064066SOLN STA NAME / NUM 
SPT000SWE 10425M001            3328984345   761910470  5369033871SOLN STA NAME / NUM 
STFU00USA 49430S001           -2700404367 -4292605295  3855137516SOLN STA NAME / NUM 
STHL00GBR 30606M003            6104817262  -605827828 -1740738696SOLN STA NAME / NUM 
STJ300CAN 40101M005            2612588547 -3426820657  4686773823SOLN STA NAME / NUM 
STJO00CAN 40101M001            2612630842 -3426807054  4686757998SOLN STA NAME / NUM 
STK200JPN 21731S004           -3642161455  2861487863  4370351234SOLN STA NAME / NUM 
STR200AUS 50119M001           -4467075228  2683011858 -3667007105SOLN STA NAME / NUM 
SUTH00ZAF 30314M002            5041274899  1916054426 -3397075717SOLN STA NAME / NUM 
SUTM00ZAF 30314M004            5041190283  1916067394 -3397189173SOLN STA NAME / NUM 
SUWN00KOR 23903M001           -3062023266  4055447816  3841818131SOLN STA NAME / NUM 
SYDN00AUS 50124M003           -4648240836  2560636448 -3526317837SOLN STA NAME / NUM 
SYOG00ATA 66006S002            1766207933  1460290326 -5932297667SOLN STA NAME / NUM 
TABL00USA 49901M001           -2448550379 -4668098890  3582741094SOLN STA NAME / NUM 
TABV00USA 49901M001           -2448550378 -4668098888  3582741094SOLN STA NAME / NUM 
TASH00UZB 12327M001            1695944824  4487138659  4190140753SOLN STA NAME / NUM 
TEHN00IRN 20404M002            3240498924  4049740456  3701663305SOLN STA NAME / NUM 
THTG00PYF 92201M016           -5246415299 -3077260633 -1913841800SOLN STA NAME / NUM 
THTI00PYF 92201M009           -5246416120 -3077259307 -1913841748SOLN STA NAME / NUM 
THU200GRL 43001M002             538093234 -1389088123  6180979352SOLN STA NAME / NUM 
THU300GRL 43001M002             538093234 -1389088124  6180979354SOLN STA NAME / NUM 
TID100AUS 50103M108           -4460996938  2682557088 -3674442687SOLN STA NAME / NUM 
TIDB00AUS 50103M108           -4460996938  2682557088 -3674442687SOLN STA NAME / NUM 
TIXG00RUS 12360M001           -1264873478  1569455760  6031003394SOLN STA NAME / NUM 
TIXI00RUS 12360M001           -1264873479  1569455759  6031003396SOLN STA NAME / NUM 
TLSE00FRA 10003M009            4627851665   119640285  4372993718SOLN STA NAME / NUM 
TN2200USA 49450M001             419472914 -5188697505  3673388656SOLN STA NAME / NUM 
TONG00TON 50902M001           -5930303545  -500148650 -2286366271SOLN STA NAME / NUM 
TOW200AUS 50140M001           -5054583386  3275504131 -2091538526SOLN STA NAME / NUM 
TRO100NOR 10302M006            2102928242   721619594  5958196389SOLN STA NAME / NUM 
TSEA00USA 49448S001           -2666155468 -1545828450  5565470213SOLN STA NAME / NUM 
TSK200JPN 21730S010           -3957184890  3310231006  3737703843SOLN STA NAME / NUM 
TSKB00JPN 21730S005           -3957200010  3310199001  3737711515SOLN STA NAME / NUM 
TUVA00TUV 51101M001           -6307543807    88455295  -939277624SOLN STA NAME / NUM 
TWTF00TWN 23603S002           -2994428577  4951309069  2674496723SOLN STA NAME / NUM 
TXES00USA 49512M001            -644343122 -5353724674  3395215163SOLN STA NAME / NUM 
UCAL00CAN 49106M001           -1641945132 -3664803810  4940009246SOLN STA NAME / NUM 
UCLU00CAN 40140M001           -2440669154 -3416437114  4785136798SOLN STA NAME / NUM 
UFPR00BRA 41610M002            3763751685 -4365113943 -2724404492SOLN STA NAME / NUM 
UNB300CAN 40146M002            1761287886 -4078238517  4561417800SOLN STA NAME / NUM 
UNBD00CAN 40146M003            1761305763 -4078238540  4561411331SOLN STA NAME / NUM 
UNBJ00CAN 40146M002            1761287886 -4078238516  4561417800SOLN STA NAME / NUM 
UNBN00CAN 40146M002            1761287885 -4078238515  4561417799SOLN STA NAME / NUM 
UNSA00ARG 41514M001            2412830471 -5271936786 -2652208884SOLN STA NAME / NUM 
UNTR00ITA 12785M001            4590764248  1032367090  4291666650SOLN STA NAME / NUM 
URUM00CHN 21612M001             193030209  4606851285  4393311521SOLN STA NAME / NUM 
USN700USA 40451S009            1112162068 -4842854662  3985497069SOLN STA NAME / NUM 
VALD00CAN 40156M001             919075565 -4167766355  4724323644SOLN STA NAME / NUM 
VILL00ESP 13406M001            4849833568  -335048758  4116015117SOLN STA NAME / NUM 
VIS000SWE 10423M001            3246470042  1077900718  5365278254SOLN STA NAME / NUM 
VOIM00MDG 33303M001            4054014096  4316070332 -2365223938SOLN STA NAME / NUM 
VTSP00USA 49449M001            1400223893 -4434888822  4350424861SOLN STA NAME / NUM 
WAB100CHE 14014M001            4327317422   566952052  4636427162SOLN STA NAME / NUM 
WAB200CHE 14014M002            4327318212   566955981  4636425954SOLN STA NAME / NUM 
WARK00NZL 50243M001           -5115333464   477886878 -3767147149SOLN STA NAME / NUM 
WARN00DEU 14277M002            3658785584   784471096  5147870729SOLN STA NAME / NUM 
WES200USA 40440S020            1492233023 -4458089509  4296046094SOLN STA NAME / NUM 
WGTN00NZL 50208M003           -4777269848   434270532 -4189484011SOLN STA NAME / NUM 
WHIT00CAN 40136M001           -2218338191 -2201205131  5543057483SOLN STA NAME / NUM 
WILL00CAN 40134M001           -2084258392 -3313873007  5019852968SOLN STA NAME / NUM 
WIND00NAM 31101M001            5633708806  1732018013 -2433985523SOLN STA NAME / NUM 
WROC00POL 12217M001            3835751071  1177250181  4941605387SOLN STA NAME / NUM 
WSRT00NLD 13506M005            3828735653   443305177  5064884859SOLN STA NAME / NUM 
WTZ200DEU 14201M015            4075534972   931822567  4801609165SOLN STA NAME / NUM 
WTZA00DEU 14201M013            4075578149   931853035  4801570184SOLN STA NAME / NUM 
WTZR00DEU 14201M010            4075580334   931854038  4801568285SOLN STA NAME / NUM 
WTZS00DEU 14201M015            4075534971   931822568  4801609165SOLN STA NAME / NUM 
WUH200CHN 21602M007           -2267750094  5009154526  3221294406SOLN STA NAME / NUM 
XMIS00AUS 50183M001           -1696344721  6039590008 -1149275133SOLN STA NAME / NUM 
YAKT00RUS 12353M002           -1914999255  2308241448  5610225485SOLN STA NAME / NUM 
YAR200AUS 50107M004           -2389026580  5043317061 -3078529613SOLN STA NAME / NUM 
YAR300AUS 50107M008           -2389043733  5043313585 -3078524446SOLN STA NAME / NUM 
YARR00AUS 50107M006           -2389025543  5043315550 -3078533036SOLN STA NAME / NUM 
YCBA00BOL 41803M001            2623233426 -5303044829 -2376415904SOLN STA NAME / NUM 
YEL200CAN 40127M006           -1224442126 -2689174687  5633660376SOLN STA NAME / NUM 
YELL00CAN 40127M003           -1224452946 -2689216204  5633638291SOLN STA NAME / NUM 
YKRO00CIV 32601M001            6306439975  -578380563   757956688SOLN STA NAME / NUM 
YSSK00RUS 12329M003           -3465321176  2638269290  4644085307SOLN STA NAME / NUM 
ZIM200CHE 14001M008            4331299689   567537574  4633133886SOLN STA NAME / NUM 
ZIM300CHE 14001M008            4331299689   567537574  4633133886SOLN STA NAME / NUM 
ZIMJ00CHE 14001M006            4331293734   567542385  4633135893SOLN STA NAME / NUM 
ZIMM00CHE 14001M004            4331296877   567556130  4633134106SOLN STA NAME / NUM 
    79                                                           # OF SOLN SATS      
E01 E02 E03 E04 E05 E07 E08 E09 E11 E12 E13 E14 E15 E18 E19 E21  PRN LIST            
E24 E25 E26 E27 E30 E31 E33 E36 G01 G02 G03 G04 G05 G06 G07 G08  PRN LIST            
G09 G10 G11 G12 G13 G14 G15 G16 G17 G18 G19 G20 G21 G22 G23 G24  PRN LIST            
G25 G26 G27 G28 G29 G30 G31 G32 R01 R02 R03 R04 R05 R07 R08 R09  PRN LIST            
R10 R11 R13 R14 R15 R16 R17 R18 R19 R20 R21 R22 R23 R24 R26      PRN LIST            
                                                                 END OF HEADER                                   
AR PIE100USA 2019 01 14 06 00  0.000000  2   -0.434555345041E-03  0.150594626686E-10          
AR ABPO00MDG 2019 01 14 06 00  0.000000  2   -0.549394689053E-08  0.207784968707E-10          
AR ADIS00ETH 2019 01 14 06 00  0.000000  2    0.478165600595E-03  0.460134395592E-10          
AR AIRA00JPN 2019 01 14 06 00  0.000000  2   -0.278205819851E-07  0.272430749330E-10          
AR AJAC00FRA 2019 01 14 06 00  0.000000  2    0.415050623334E-07  0.216572429693E-10          
AR ALBH00CAN 2019 01 14 06 00  0.000000  2    0.280859860071E-07  0.227529869122E-10          
AR ALGO00CAN 2019 01 14 06 00  0.000000  2   -0.915199511319E-05  0.181316119906E-10          
AR ALIC00AUS 2019 01 14 06 00  0.000000  2    0.351004880554E-07  0.241129296762E-10          
AR ALRT00CAN 2019 01 14 06 00  0.000000  2   -0.291392523411E-07  0.220369124010E-10          
AR ANKR00TUR 2019 01 14 06 00  0.000000  2    0.151077612244E-07  0.188510106972E-10          
AR ANTC00CHL 2019 01 14 06 00  0.000000  2   -0.813456720346E-08  0.254088228967E-10          
AR AREG00PER 2019 01 14 06 00  0.000000  2    0.137140054666E-03  0.165033173509E-10          
AR AREQ00PER 2019 01 14 06 00  0.000000  2   -0.159921392395E-03  0.180085990366E-10          
AR ARTU00RUS 2019 01 14 06 00  0.000000  2    0.980862864296E-04  0.184452465194E-10          
AR ASCG00SHN 2019 01 14 06 00  0.000000  2   -0.183277177607E-07  0.228655679157E-10          
AR AUCK00NZL 2019 01 14 06 00  0.000000  2   -0.994531471244E-08  0.257230547715E-10          
AR AXPV00FRA 2019 01 14 06 00  0.000000  2   -0.203199283888E-07  0.219685447217E-10          
AR AZGB00USA 2019 01 14 06 00  0.000000  2   -0.631376783872E-08  0.309869026592E-10          
AR BAKE00CAN 2019 01 14 06 00  0.000000  2    0.180217092286E-07  0.216387105401E-10          
AR BAKO00IDN 2019 01 14 06 00  0.000000  2    0.747001870780E-08  0.224619928197E-10          
AR BARH00USA 2019 01 14 06 00  0.000000  2    0.360984661873E-08  0.214729091886E-10          
AR BBYS00SVK 2019 01 14 06 00  0.000000  2   -0.287787654229E-07  0.223313602554E-10          
AR BISK00CZE 2019 01 14 06 00  0.000000  2   -0.216634124512E-03  0.748420303217E-10          
AR BJCO00BEN 2019 01 14 06 00  0.000000  2   -0.251747427904E-07  0.334486771384E-10          
AR BJFS00CHN 2019 01 14 06 00  0.000000  2   -0.299261521851E-07  0.226030511356E-10          
AR BJNM00CHN 2019 01 14 06 00  0.000000  2   -0.137419015722E-06  0.531277223001E-10          
AR BNDY00AUS 2019 01 14 06 00  0.000000  2   -0.342916175595E-07  0.390515420848E-10          
AR BOAV00BRA 2019 01 14 06 00  0.000000  2   -0.938708116194E-08  0.239631087252E-10          
AR BOGO00POL 2019 01 14 06 00  0.000000  2    0.297943792509E-03  0.265693064586E-10          
AR BOGT00COL 2019 01 14 06 00  0.000000  2    0.824082182922E-08  0.234274028906E-10          
AR BRAZ00BRA 2019 01 14 06 00  0.000000  2   -0.228174576183E-07  0.282991165188E-10          
AR BREW00USA 2019 01 14 06 00  0.000000  2    0.328740491491E-03  0.140219611511E-10          
AR BRMU00GBR 2019 01 14 06 00  0.000000  2    0.342495725450E-08  0.281804376343E-10          
AR BRST00FRA 2019 01 14 06 00  0.000000  2   -0.182795142322E-07  0.183224384686E-10          
AR BRUX00BEL 2019 01 14 06 00  0.000000  2    0.140689959598E-06  0.107935916789E-10          
AR BSHM00ISR 2019 01 14 06 00  0.000000  2    0.856838354371E-08  0.383789676909E-10          
AR BZRG00ITA 2019 01 14 06 00  0.000000  2    0.433642408572E-07  0.250014941992E-10          
AR CAGS00CAN 2019 01 14 06 00  0.000000  2   -0.236373929747E-07  0.285921206951E-10          
AR CAS100ATA 2019 01 14 06 00  0.000000  2   -0.349602739574E-07  0.180151679908E-10          
AR CCJ200JPN 2019 01 14 06 00  0.000000  2   -0.191353868504E-07  0.258362503706E-10          
AR CEDU00AUS 2019 01 14 06 00  0.000000  2   -0.164565176797E-03  0.211132732817E-10          
AR CEFE00BRA 2019 01 14 06 00  0.000000  2   -0.108096238889E-08  0.315786331443E-10          
AR CHOF00JPN 2019 01 14 06 00  0.000000  2   -0.583502656810E-04  0.207209389976E-10          
AR CHPG00BRA 2019 01 14 06 00  0.000000  2   -0.276678576679E-07  0.275384069415E-10          
AR CHPI00BRA 2019 01 14 06 00  0.000000  2   -0.176537156800E-03  0.239293624453E-10          
AR CHTI00NZL 2019 01 14 06 00  0.000000  2   -0.213580897719E-07  0.216365914533E-10          
AR CHUR00CAN 2019 01 14 06 00  0.000000  2   -0.150377541220E-03  0.248303079590E-10          
AR COCO00AUS 2019 01 14 06 00  0.000000  2   -0.990656828302E-08  0.277881646269E-10          
AR CORD00ARG 2019 01 14 06 00  0.000000  2    0.678951892495E-09  0.225872647239E-10          
AR COYQ00CHL 2019 01 14 06 00  0.000000  2   -0.681918461035E-08  0.343352509396E-10          
AR CPVG00CPV 2019 01 14 06 00  0.000000  2   -0.232152970174E-07  0.200337142520E-10          
AR CPXF00USA 2019 01 14 06 00  0.000000  2    0.141239634724E-07  0.203548329734E-10          
AR CRO100VIR 2019 01 14 06 00  0.000000  2    0.156438565516E-07  0.236402966533E-10          
AR CUT000AUS 2019 01 14 06 00  0.000000  2    0.329331612014E-03  0.201303948356E-10          
AR DAEJ00KOR 2019 01 14 06 00  0.000000  2   -0.275433922546E-07  0.179965881691E-10          
AR DARW00AUS 2019 01 14 06 00  0.000000  2    0.400818966222E-08  0.326398690192E-10          
AR DAV100ATA 2019 01 14 06 00  0.000000  2    0.241570593044E-03  0.161336685613E-10          
AR DGAR00GBR 2019 01 14 06 00  0.000000  2   -0.835080874453E-08  0.229558045030E-10          
AR DHLG00USA 2019 01 14 06 00  0.000000  2    0.160735694657E-07  0.550065435839E-10          
AR DLF100NLD 2019 01 14 06 00  0.000000  2   -0.315200102341E-07  0.152561125229E-10          
AR DOUR00BEL 2019 01 14 06 00  0.000000  2    0.218316675287E-03  0.180514525958E-10          
AR DRAO00CAN 2019 01 14 06 00  0.000000  2   -0.121831985205E-04  0.126128656630E-10          
AR DUBO00CAN 2019 01 14 06 00  0.000000  2    0.278377211560E-04  0.154524277480E-10          
AR DYNG00GRC 2019 01 14 06 00  0.000000  2   -0.269643958933E-07  0.155880355367E-10          
AR EBRE00ESP 2019 01 14 06 00  0.000000  2    0.151793870275E-07  0.178144775280E-10          
AR FAA100PYF 2019 01 14 06 00  0.000000  2    0.128286732430E-03  0.421820942904E-10          
AR FAIR00USA 2019 01 14 06 00  0.000000  2    0.165177868827E-08  0.216206109865E-10          
AR FLIN00CAN 2019 01 14 06 00  0.000000  2    0.290845910091E-07  0.181464857957E-10          
AR FLRS00PRT 2019 01 14 06 00  0.000000  2    0.326933514571E-08  0.209316754709E-10          
AR FRDN00CAN 2019 01 14 06 00  0.000000  2    0.100868885688E-07  0.159841280230E-10          
AR FTNA00WLF 2019 01 14 06 00  0.000000  2   -0.308247038478E-07  0.475607429985E-10          
AR FUNC00PRT 2019 01 14 06 00  0.000000  2   -0.278262318481E-09  0.237784667344E-10          
AR GANP00SVK 2019 01 14 06 00  0.000000  2   -0.286932907756E-07  0.177301211556E-10          
AR GLPS00ECU 2019 01 14 06 00  0.000000  2    0.460805217081E-08  0.257303503690E-10          
AR GLSV00UKR 2019 01 14 06 00  0.000000  2    0.225899672725E-08  0.554126305628E-10          
AR GMSD00JPN 2019 01 14 06 00  0.000000  2   -0.275905021841E-07  0.197242637577E-10          
AR GODE00USA 2019 01 14 06 00  0.000000  2   -0.760124594274E-04  0.176077394426E-10          
AR GODZ00USA 2019 01 14 06 00  0.000000  2    0.291562026705E-03  0.221685717226E-10          
AR GOL200USA 2019 01 14 06 00  0.000000  2    0.929197794023E-03  0.241092030020E-10          
AR GOP600CZE 2019 01 14 06 00  0.000000  2    0.393975080845E-08  0.159464071005E-10          
AR GOPE00CZE 2019 01 14 06 00  0.000000  2   -0.399495636333E-07  0.181910008366E-10          
AR GRAC00FRA 2019 01 14 06 00  0.000000  2    0.464613608981E-07  0.304268351169E-10          
AR GRAS00FRA 2019 01 14 06 00  0.000000  2   -0.362821771760E-07  0.219256129334E-10          
AR GRAZ00AUT 2019 01 14 06 00  0.000000  2    0.424661921325E-03  0.206571648685E-10          
AR GUAM00GUM 2019 01 14 06 00  0.000000  2    0.246602751223E-08  0.430252645847E-10          
AR GUAT00GTM 2019 01 14 06 00  0.000000  2   -0.165074724571E-08  0.292125305875E-10          
AR GUUG00GUM 2019 01 14 06 00  0.000000  2   -0.180902726794E-07  0.343918144830E-10          
AR HARB00ZAF 2019 01 14 06 00  0.000000  2   -0.274259858990E-03  0.267034470184E-10          
AR HERS00GBR 2019 01 14 06 00  0.000000  2    0.181708383008E-05  0.129192342949E-10          
AR HERT00GBR 2019 01 14 06 00  0.000000  2    0.196274283542E-08  0.159348259688E-10          
AR HLFX00CAN 2019 01 14 06 00  0.000000  2   -0.690352869066E-04  0.198325547021E-10          
AR HNLC00USA 2019 01 14 06 00  0.000000  2   -0.240366897910E-07  0.350924093000E-10          
AR HNPT00USA 2019 01 14 06 00  0.000000  2    0.620030355320E-08  0.209529283922E-10          
AR HOB200AUS 2019 01 14 06 00  0.000000  2    0.320629971021E-08  0.257057137388E-10          
AR HOFN00ISL 2019 01 14 06 00  0.000000  2    0.442887938843E-07  0.170431171742E-10          
AR HOLB00CAN 2019 01 14 06 00  0.000000  2    0.130385090623E-07  0.139469169247E-10          
AR HRAG00ZAF 2019 01 14 06 00  0.000000  2    0.403918331512E-03  0.278257767468E-10          
AR HRAO00ZAF 2019 01 14 06 00  0.000000  2    0.369077076344E-03  0.342336760526E-10          
AR HYDE00IND 2019 01 14 06 00  0.000000  2   -0.318093296817E-08  0.249284111438E-10          
AR IDDR00USA 2019 01 14 06 00  0.000000  2    0.332092753789E-07  0.202139885485E-10          
AR IENG00ITA 2019 01 14 06 00  0.000000  2   -0.463877811111E-06  0.244099726005E-10          
AR IISC00IND 2019 01 14 06 00  0.000000  2   -0.797811943366E-08  0.215190852289E-10          
AR IMPZ00GBR 2019 01 14 06 00  0.000000  2   -0.215002304012E-07  0.359988360606E-10          
AR INEG00MEX 2019 01 14 06 00  0.000000  2    0.307842858729E-07  0.290582670734E-10          
AR INVK00CAN 2019 01 14 06 00  0.000000  2   -0.181061946854E-07  0.368021151936E-10          
AR IQAL00CAN 2019 01 14 06 00  0.000000  2    0.168828238367E-07  0.192497178078E-10          
AR IRKJ00RUS 2019 01 14 06 00  0.000000  2    0.165256827475E-03  0.211688719217E-10          
AR IRKM00RUS 2019 01 14 06 00  0.000000  2    0.954644090490E-03  0.286733542760E-10          
AR ISBA00IRQ 2019 01 14 06 00  0.000000  2   -0.258924830661E-07  0.260547054952E-10          
AR JFNG00CHN 2019 01 14 06 00  0.000000  2   -0.244248606349E-07  0.220027422460E-10          
AR JOG200IDN 2019 01 14 06 00  0.000000  2   -0.240388559261E-03  0.388371975452E-10          
AR JOZ200POL 2019 01 14 06 00  0.000000  2    0.486126469780E-08  0.182775418738E-10          
AR JOZE00POL 2019 01 14 06 00  0.000000  2    0.370608847354E-03  0.192445776673E-10          
AR KARR00AUS 2019 01 14 06 00  0.000000  2   -0.299957561140E-07  0.271810693840E-10          
AR KERG00ATF 2019 01 14 06 00  0.000000  2   -0.286126448983E-07  0.372874388050E-10          
AR KIR000SWE 2019 01 14 06 00  0.000000  2   -0.187532189155E-10  0.146243582070E-10          
AR KIR800SWE 2019 01 14 06 00  0.000000  2   -0.293142844497E-07  0.150528578533E-10          
AR KIRU00SWE 2019 01 14 06 00  0.000000  2    0.362749900568E-05  0.136734923341E-10          
AR KIT300UZB 2019 01 14 06 00  0.000000  2   -0.461229965221E-03  0.333648352025E-10          
AR KLOP00DEU 2019 01 14 06 00  0.000000  2   -0.145375665635E-07  0.413266172327E-10          
AR KOKB00USA 2019 01 14 06 00  0.000000  2    0.144274212733E-03  0.301650048541E-10          
AR KOKV00USA 2019 01 14 06 00  0.000000  2   -0.581894185577E-04  0.204621619040E-10          
AR KOUC00NCL 2019 01 14 06 00  0.000000  2   -0.162313347035E-07  0.251144884828E-10          
AR KOUG00GUF 2019 01 14 06 00  0.000000  2    0.346329702445E-03  0.217009761839E-10          
AR KOUR00GUF 2019 01 14 06 00  0.000000  2   -0.305694967130E-03  0.252519340932E-10          
AR KRGG00ATF 2019 01 14 06 00  0.000000  2    0.303800243674E-07  0.324529541026E-10          
AR KZN200RUS 2019 01 14 06 00  0.000000  2   -0.308109164199E-07  0.207310802972E-10          
AR LAMA00POL 2019 01 14 06 00  0.000000  2    0.633960379207E-08  0.197827222767E-10          
AR LAUT00FJI 2019 01 14 06 00  0.000000  2   -0.418956781105E-03  0.226579541735E-10          
AR LEIJ00DEU 2019 01 14 06 00  0.000000  2    0.472226161190E-03  0.462396324499E-10          
AR LHAZ00CHN 2019 01 14 06 00  0.000000  2    0.281904967886E-07  0.298475726570E-10          
AR LLAG00ESP 2019 01 14 06 00  0.000000  2    0.457287240449E-04  0.198307097959E-10          
AR LMMF00MTQ 2019 01 14 06 00  0.000000  2   -0.205279419155E-07  0.289420608503E-10          
AR LPAL00ESP 2019 01 14 06 00  0.000000  2   -0.183387353122E-08  0.199178096761E-10          
AR LPGS00ARG 2019 01 14 06 00  0.000000  2   -0.455179361163E-03  0.221972128316E-10          
AR M0SE00ITA 2019 01 14 06 00  0.000000  2    0.357647071268E-07  0.216431243390E-10          
AR MAC100AUS 2019 01 14 06 00  0.000000  2   -0.428920505735E-03  0.187234183295E-10          
AR MAD200ESP 2019 01 14 06 00  0.000000  2   -0.259841567719E-05  0.589659858028E-10          
AR MADR00ESP 2019 01 14 06 00  0.000000  2    0.659929272654E-04  0.390333544623E-10          
AR MAG000RUS 2019 01 14 06 00  0.000000  2   -0.662348951837E-07  0.225033637812E-10          
AR MAJU00MHL 2019 01 14 06 00  0.000000  2    0.493517064572E-06  0.327819551861E-10          
AR MANA00NIC 2019 01 14 06 00  0.000000  2   -0.184121103006E-07  0.465097037043E-10          
AR MAO000USA 2019 01 14 06 00  0.000000  2   -0.407519442648E-03  0.158882294071E-10          
AR MAR600SWE 2019 01 14 06 00  0.000000  2    0.225434637018E-09  0.208230628073E-10          
AR MAR700SWE 2019 01 14 06 00  0.000000  2   -0.268184750011E-07  0.206553866489E-10          
AR MARS00FRA 2019 01 14 06 00  0.000000  2    0.315354728530E-07  0.294456947419E-10          
AR MAS100ESP 2019 01 14 06 00  0.000000  2    0.293942977024E-03  0.163262337234E-10          
AR MAT100ITA 2019 01 14 06 00  0.000000  2    0.140335096684E-07  0.217420255323E-10          
AR MATE00ITA 2019 01 14 06 00  0.000000  2   -0.294286139534E-06  0.146017395007E-10          
AR MAUI00USA 2019 01 14 06 00  0.000000  2    0.273077977695E-03  0.220053760867E-10          
AR MAW100ATA 2019 01 14 06 00  0.000000  2   -0.587139951368E-08  0.165009878935E-10          
AR MAYG00MYT 2019 01 14 06 00  0.000000  2   -0.297027968248E-07  0.286386801667E-10          
AR MCM400ATA 2019 01 14 06 00  0.000000  2   -0.199327230026E-08  0.207729700311E-10          
AR MDO100USA 2019 01 14 06 00  0.000000  2   -0.367947715351E-08  0.159929690272E-10          
AR MDVJ00RUS 2019 01 14 06 00  0.000000  2    0.224187561218E-03  0.197025804014E-10          
AR MEDI00ITA 2019 01 14 06 00  0.000000  2    0.466177015239E-06  0.178295818460E-10          
AR METG00FIN 2019 01 14 06 00  0.000000  2   -0.295485514807E-07  0.168980331655E-10          
AR METS00FIN 2019 01 14 06 00  0.000000  2   -0.264174475947E-03  0.214090817106E-10          
AR MGUE00ARG 2019 01 14 06 00  0.000000  2   -0.385208745061E-03  0.218717918454E-10          
AR MIZU00JPN 2019 01 14 06 00  0.000000  2    0.327849536402E-03  0.363114651630E-10          
AR MKEA00USA 2019 01 14 06 00  0.000000  2    0.279590899156E-03  0.195568834862E-10          
AR MOBJ00RUS 2019 01 14 06 00  0.000000  2    0.487230373568E-03  0.361000832315E-10          
AR MOBK00RUS 2019 01 14 06 00  0.000000  2    0.147678811453E-03  0.357715248284E-10          
AR MOBN00RUS 2019 01 14 06 00  0.000000  2   -0.453432835113E-07  0.446441685581E-10          
AR MOBS00AUS 2019 01 14 06 00  0.000000  2   -0.129518569379E-08  0.220267592784E-10          
AR MONP00USA 2019 01 14 06 00  0.000000  2    0.294817709810E-07  0.526924537427E-10          
AR MORP00GBR 2019 01 14 06 00  0.000000  2   -0.279255077685E-07  0.311718332484E-10          
AR MQZG00NZL 2019 01 14 06 00  0.000000  2   -0.134750772630E-07  0.233608163239E-10          
AR MRO100AUS 2019 01 14 06 00  0.000000  2   -0.275592511923E-07  0.207101636152E-10          
AR MTKA00JPN 2019 01 14 06 00  0.000000  2   -0.273772267705E-07  0.257016654759E-10          
AR MYVA00ISL 2019 01 14 06 00  0.000000  2    0.342547062725E-07  0.161513642898E-10          
AR NAIN00CAN 2019 01 14 06 00  0.000000  2   -0.410194755230E-07  0.191531899460E-10          
AR NANO00CAN 2019 01 14 06 00  0.000000  2    0.129703497650E-07  0.165690297932E-10          
AR NAUR00NRU 2019 01 14 06 00  0.000000  2    0.617836242061E-08  0.303699940424E-10          
AR NICO00CYP 2019 01 14 06 00  0.000000  2    0.409952378029E-07  0.227623182691E-10          
AR NIST00USA 2019 01 14 06 00  0.000000  2    0.143689829831E-06  0.298241540472E-10          
AR NIUM00NIU 2019 01 14 06 00  0.000000  2   -0.221533255416E-07  0.228447880651E-10          
AR NKLG00GAB 2019 01 14 06 00  0.000000  2   -0.326339137677E-07  0.309338993955E-10          
AR NLIB00USA 2019 01 14 06 00  0.000000  2   -0.202618011954E-04  0.211969269483E-10          
AR NNOR00AUS 2019 01 14 06 00  0.000000  2   -0.173874638890E-03  0.202002196092E-10          
AR NOT100ITA 2019 01 14 06 00  0.000000  2   -0.191927416788E-05  0.214885230508E-10          
AR NOVM00RUS 2019 01 14 06 00  0.000000  2   -0.442542826062E-03  0.286697412328E-10          
AR NRC100CAN 2019 01 14 06 00  0.000000  2   -0.178937768947E-03  0.131964862280E-10          
AR NRIL00RUS 2019 01 14 06 00  0.000000  2   -0.489427654146E-07  0.238916418047E-10          
AR NRMD00NCL 2019 01 14 06 00  0.000000  2   -0.124105391034E-07  0.262975621274E-10          
AR NTUS00SGP 2019 01 14 06 00  0.000000  2    0.964319152989E-08  0.276686845758E-10          
AR NYA100NOR 2019 01 14 06 00  0.000000  2   -0.240687463643E-07  0.174602581821E-10          
AR NYA200NOR 2019 01 14 06 00  0.000000  2    0.446105246573E-03  0.191223684587E-10          
AR NYAL00NOR 2019 01 14 06 00  0.000000  2    0.494806046125E-04  0.272779258837E-10          
AR OHI200ATA 2019 01 14 06 00  0.000000  2    0.196599066547E-03  0.196482274872E-10          
AR OHI300ATA 2019 01 14 06 00  0.000000  2   -0.742709479053E-02  0.511125891830E-10          
AR ONS100SWE 2019 01 14 06 00  0.000000  2   -0.289935168363E-07  0.177346341342E-10          
AR ONSA00SWE 2019 01 14 06 00  0.000000  2    0.609275238224E-08  0.198067722835E-10          
AR OPMT00FRA 2019 01 14 06 00  0.000000  2    0.294574378684E-06  0.313528646767E-10          
AR OUS200NZL 2019 01 14 06 00  0.000000  2    0.221337672238E-03  0.176815956974E-10          
AR PADO00ITA 2019 01 14 06 00  0.000000  2    0.298039466893E-03  0.163443000736E-10          
AR PARC00CHL 2019 01 14 06 00  0.000000  2   -0.135265922549E-07  0.323610736272E-10          
AR PARK00AUS 2019 01 14 06 00  0.000000  2   -0.270718157146E-07  0.234796962390E-10          
AR PBRI00IND 2019 01 14 06 00  0.000000  2   -0.664792732203E-06  0.352605434399E-10          
AR PDEL00PRT 2019 01 14 06 00  0.000000  2    0.827553313690E-09  0.188991056458E-10          
AR PENC00HUN 2019 01 14 06 00  0.000000  2    0.332350892558E-08  0.355165370682E-10          
AR PERT00AUS 2019 01 14 06 00  0.000000  2   -0.250957971602E-07  0.217337805074E-10          
AR PETS00RUS 2019 01 14 06 00  0.000000  2   -0.711709685704E-07  0.271486239038E-10          
AR PFA200AUT 2019 01 14 06 00  0.000000  2    0.246578686154E-07  0.357904494648E-10          
AR PIMO00PHL 2019 01 14 06 00  0.000000  2    0.901325997845E-08  0.363453157812E-10          
AR POHN00FSM 2019 01 14 06 00  0.000000  2   -0.460921433193E-03  0.304551559854E-10          
AR POL200KGZ 2019 01 14 06 00  0.000000  2   -0.294004065038E-08  0.202567153894E-10          
AR POLV00UKR 2019 01 14 06 00  0.000000  2    0.379322610244E-07  0.241508477270E-10          
AR POTS00DEU 2019 01 14 06 00  0.000000  2    0.430530009709E-03  0.218925415787E-10          
AR POVE00BRA 2019 01 14 06 00  0.000000  2   -0.103467574278E-08  0.218371405310E-10          
AR PRDS00CAN 2019 01 14 06 00  0.000000  2   -0.235427737802E-03  0.160899905047E-10          
AR PTAG00PHL 2019 01 14 06 00  0.000000  2    0.151027798383E-07  0.310310473608E-10          
AR PTBB00DEU 2019 01 14 06 00  0.000000  2    0.510661097985E-06  0.252046138401E-10          
AR QAQ100GRL 2019 01 14 06 00  0.000000  2    0.445163464910E-04  0.178416359186E-10          
AR QUIN00USA 2019 01 14 06 00  0.000000  2    0.161065937538E-07  0.165563663505E-10          
AR RABT00MAR 2019 01 14 06 00  0.000000  2   -0.454700056557E-07  0.198655449009E-10          
AR RBAY00ZAF 2019 01 14 06 00  0.000000  2   -0.257820757658E-07  0.296554447032E-10          
AR REDU00BEL 2019 01 14 06 00  0.000000  2    0.113458380689E-03  0.173876983114E-10          
AR REUN00REU 2019 01 14 06 00  0.000000  2   -0.104647014005E-07  0.273473398208E-10          
AR REYK00ISL 2019 01 14 06 00  0.000000  2    0.400675876591E-07  0.254495241864E-10          
AR RGDG00ARG 2019 01 14 06 00  0.000000  2   -0.242337802052E-07  0.175021586083E-10          
AR RIO200ARG 2019 01 14 06 00  0.000000  2    0.795988501160E-04  0.175750325753E-10          
AR RIOP00ECU 2019 01 14 06 00  0.000000  2    0.560000166344E-07  0.278893105808E-10          
AR ROTH00ATA 2019 01 14 06 00  0.000000  2    0.501723491376E-08  0.189874674827E-10          
AR SALU00BRA 2019 01 14 06 00  0.000000  2   -0.152538759072E-07  0.334614520005E-10          
AR SAMO00WSM 2019 01 14 06 00  0.000000  2   -0.233095755053E-07  0.324743512464E-10          
AR SANT00CHL 2019 01 14 06 00  0.000000  2   -0.337645381639E-03  0.202256994895E-10          
AR SASS00DEU 2019 01 14 06 00  0.000000  2   -0.270919414322E-03  0.162976538902E-10          
AR SAVO00BRA 2019 01 14 06 00  0.000000  2   -0.284251070241E-08  0.247319544681E-10          
AR SCH200CAN 2019 01 14 06 00  0.000000  2    0.224346724619E-07  0.233406259440E-10          
AR SCOR00GRL 2019 01 14 06 00  0.000000  2   -0.157341421498E-03  0.155519901295E-10          
AR SCRZ00BOL 2019 01 14 06 00  0.000000  2    0.281707065774E-07  0.292478496182E-10          
AR SCTB00ATA 2019 01 14 06 00  0.000000  2   -0.227884000656E-07  0.183002945316E-10          
AR SEYG00SYC 2019 01 14 06 00  0.000000  2   -0.318803760968E-07  0.263655772585E-10          
AR SFER00ESP 2019 01 14 06 00  0.000000  2    0.378550543871E-07  0.159336982910E-10          
AR SHAO00CHN 2019 01 14 06 00  0.000000  2   -0.678591527550E-07  0.322431079654E-10          
AR SOFI00BGR 2019 01 14 06 00  0.000000  2    0.881538782829E-09  0.260312714477E-10          
AR SPT000SWE 2019 01 14 06 00  0.000000  2    0.194482221169E-08  0.261140022135E-10          
AR STFU00USA 2019 01 14 06 00  0.000000  2   -0.329545635382E-03  0.205996902377E-10          
AR STHL00GBR 2019 01 14 06 00  0.000000  2    0.262578289071E-08  0.191301042839E-10          
AR STJ300CAN 2019 01 14 06 00  0.000000  2    0.327400492516E-04  0.128611387452E-10          
AR STJO00CAN 2019 01 14 06 00  0.000000  2   -0.106736328744E-04  0.145760742654E-10          
AR STK200JPN 2019 01 14 06 00  0.000000  2   -0.144793558915E-07  0.165295833852E-10          
AR STR200AUS 2019 01 14 06 00  0.000000  2   -0.314754334230E-07  0.214298569093E-10          
AR SUTH00ZAF 2019 01 14 06 00  0.000000  2   -0.342890801511E-08  0.156125463091E-10          
AR SUTM00ZAF 2019 01 14 06 00  0.000000  2    0.481927080226E-03  0.292844715024E-10          
AR SYDN00AUS 2019 01 14 06 00  0.000000  2    0.234937135625E-05  0.278897143138E-10          
AR TABL00USA 2019 01 14 06 00  0.000000  2   -0.951542742279E-08  0.333409759672E-10          
AR TABV00USA 2019 01 14 06 00  0.000000  2    0.158730024993E-07  0.222939963782E-10          
AR TASH00UZB 2019 01 14 06 00  0.000000  2   -0.216057396929E-04  0.174422727898E-10          
AR TEHN00IRN 2019 01 14 06 00  0.000000  2   -0.261296511242E-08  0.265505516903E-10          
AR THTG00PYF 2019 01 14 06 00  0.000000  2    0.340534386812E-07  0.329436259286E-10          
AR THTI00PYF 2019 01 14 06 00  0.000000  2   -0.282765220181E-07  0.393337302034E-10          
AR THU200GRL 2019 01 14 06 00  0.000000  2    0.610313195088E-03  0.169696497457E-10          
AR THU300GRL 2019 01 14 06 00  0.000000  2   -0.448852445880E-07  0.221423517776E-10          
AR TID100AUS 2019 01 14 06 00  0.000000  2   -0.103830420782E-03  0.204018254157E-10          
AR TIDB00AUS 2019 01 14 06 00  0.000000  2   -0.535605135598E-07  0.334168047054E-10          
AR TIXG00RUS 2019 01 14 06 00  0.000000  2    0.214804259916E-03  0.251804099333E-10          
AR TIXI00RUS 2019 01 14 06 00  0.000000  2    0.114955239667E-04  0.253141192217E-10          
AR TLSE00FRA 2019 01 14 06 00  0.000000  2   -0.270229709376E-07  0.198764744907E-10          
AR TN2200USA 2019 01 14 06 00  0.000000  2   -0.297630402709E-03  0.414077272838E-10          
AR TONG00TON 2019 01 14 06 00  0.000000  2    0.280304559666E-03  0.247852966130E-10          
AR TOW200AUS 2019 01 14 06 00  0.000000  2    0.546424797075E-09  0.282765549592E-10          
AR TRO100NOR 2019 01 14 06 00  0.000000  2   -0.123573474001E-03  0.178616030707E-10          
AR TSEA00USA 2019 01 14 06 00  0.000000  2    0.151870240575E-08  0.200502575842E-10          
AR TSK200JPN 2019 01 14 06 00  0.000000  2   -0.118353330096E-07  0.172655472195E-10          
AR TSKB00JPN 2019 01 14 06 00  0.000000  2   -0.196354705749E-07  0.319167742057E-10          
AR TUVA00TUV 2019 01 14 06 00  0.000000  2   -0.290796990872E-07  0.233055580880E-10          
AR TWTF00TWN 2019 01 14 06 00  0.000000  2   -0.362235129088E-03  0.210447731335E-10          
AR TXES00USA 2019 01 14 06 00  0.000000  2   -0.695214927818E-08  0.248876475707E-10          
AR UCAL00CAN 2019 01 14 06 00  0.000000  2   -0.247388554057E-07  0.233306731647E-10          
AR UCLU00CAN 2019 01 14 06 00  0.000000  2    0.917459863669E-08  0.169258767874E-10          
AR UFPR00BRA 2019 01 14 06 00  0.000000  2   -0.351691904576E-08  0.240765463478E-10          
AR UNB300CAN 2019 01 14 06 00  0.000000  2   -0.225678288139E-07  0.614790471657E-10          
AR UNBD00CAN 2019 01 14 06 00  0.000000  2    0.965008120348E-05  0.204133628460E-10          
AR UNBJ00CAN 2019 01 14 06 00  0.000000  2    0.540104418423E-04  0.224067325874E-10          
AR UNBN00CAN 2019 01 14 06 00  0.000000  2    0.302180704165E-07  0.371464840092E-10          
AR UNSA00ARG 2019 01 14 06 00  0.000000  2    0.258745501805E-04  0.299691627964E-10          
AR UNTR00ITA 2019 01 14 06 00  0.000000  2   -0.374359935206E-03  0.201102079205E-10          
AR URUM00CHN 2019 01 14 06 00  0.000000  2    0.426174636532E-03  0.587906207659E-10          
AR USN700USA 2019 01 14 06 00  0.000000  2    0.213959784157E-06  0.144923788923E-10          
AR VALD00CAN 2019 01 14 06 00  0.000000  2   -0.451201848252E-09  0.157017128752E-10          
AR VILL00ESP 2019 01 14 06 00  0.000000  2    0.179041477354E-03  0.172946996525E-10          
AR VIS000SWE 2019 01 14 06 00  0.000000  2   -0.562855230297E-09  0.162024410370E-10          
AR VOIM00MDG 2019 01 14 06 00  0.000000  2    0.182581379471E-03  0.239979636452E-10          
AR VTSP00USA 2019 01 14 06 00  0.000000  2   -0.173990891214E-07  0.279930792398E-10          
AR WAB100CHE 2019 01 14 06 00  0.000000  2    0.823523521019E-08  0.260400119794E-10          
AR WAB200CHE 2019 01 14 06 00  0.000000  2    0.226603151225E-06  0.189407777511E-10          
AR WARK00NZL 2019 01 14 06 00  0.000000  2   -0.793331454157E-08  0.239618833829E-10          
AR WARN00DEU 2019 01 14 06 00  0.000000  2   -0.361797505233E-03  0.274539874570E-10          
AR WES200USA 2019 01 14 06 00  0.000000  2   -0.476799883507E-03  0.201934856934E-10          
AR WGTN00NZL 2019 01 14 06 00  0.000000  2   -0.176205355519E-07  0.219885518541E-10          
AR WHIT00CAN 2019 01 14 06 00  0.000000  2    0.397545594341E-05  0.143281050164E-10          
AR WILL00CAN 2019 01 14 06 00  0.000000  2   -0.116492987989E-07  0.160556272318E-10          
AR WIND00NAM 2019 01 14 06 00  0.000000  2    0.382720501902E-03  0.283477931393E-10          
AR WROC00POL 2019 01 14 06 00  0.000000  2    0.418678039292E-08  0.212776241096E-10          
AR WSRT00NLD 2019 01 14 06 00  0.000000  2    0.374419515063E-03  0.130456780926E-10          
AR WTZ200DEU 2019 01 14 06 00  0.000000  2   -0.154482329327E-06  0.155572802758E-10          
AR WTZA00DEU 2019 01 14 06 00  0.000000  2    0.104435318580E-05  0.300656724369E-10          
AR WTZR00DEU 2019 01 14 06 00  0.000000  2   -0.217131436190E-06  0.192863427148E-10          
AR WTZS00DEU 2019 01 14 06 00  0.000000  2    0.952902672667E-06  0.127418681120E-10          
AR WUH200CHN 2019 01 14 06 00  0.000000  2    0.286717327686E-03  0.386615648023E-10          
AR XMIS00AUS 2019 01 14 06 00  0.000000  2   -0.317779705041E-07  0.265650113619E-10          
AR YAKT00RUS 2019 01 14 06 00  0.000000  2   -0.669609091428E-07  0.454380964094E-10          
AR YAR200AUS 2019 01 14 06 00  0.000000  2   -0.277394451823E-03  0.519503410063E-10          
AR YAR300AUS 2019 01 14 06 00  0.000000  2    0.520441038784E-08  0.195430707994E-10          
AR YARR00AUS 2019 01 14 06 00  0.000000  2   -0.291430851703E-09  0.152973257899E-10          
AR YCBA00BOL 2019 01 14 06 00  0.000000  2    0.182914535661E-09  0.243596767905E-10          
AR YEL200CAN 2019 01 14 06 00  0.000000  2    0.370310452611E-03  0.134259917036E-10          
AR YELL00CAN 2019 01 14 06 00  0.000000  2   -0.417264448376E-03  0.150847628673E-10          
AR YKRO00CIV 2019 01 14 06 00  0.000000  2    0.853043238478E-08  0.243788245402E-10          
AR YSSK00RUS 2019 01 14 06 00  0.000000  2   -0.649173939344E-07  0.224466152909E-10          
AR ZIM200CHE 2019 01 14 06 00  0.000000  2   -0.180653151011E-07  0.182313851006E-10          
AR ZIM300CHE 2019 01 14 06 00  0.000000  2   -0.585567062787E-04  0.183304933145E-10          
AR ZIMJ00CHE 2019 01 14 06 00  0.000000  2   -0.500742613088E-03  0.159422492336E-10          
AR ZIMM00CHE 2019 01 14 06 00  0.000000  2   -0.153415019478E-07  0.255477890172E-10          
AS E01       2019 01 14 06 00  0.000000  2   -0.520392716079E-03  0.405589240688E-11          
AS E02       2019 01 14 06 00  0.000000  2    0.432508623386E-04  0.405046615562E-11          
AS E03       2019 01 14 06 00  0.000000  2   -0.121980066172E-03  0.410362740599E-11          
AS E04       2019 01 14 06 00  0.000000  2   -0.199675174987E-03  0.422821992595E-11          
AS E05       2019 01 14 06 00  0.000000  2    0.125369014840E-03  0.399743421999E-11          
AS E07       2019 01 14 06 00  0.000000  2   -0.112246910047E-03  0.376330933500E-11          
AS E08       2019 01 14 06 00  0.000000  2    0.642378063936E-02  0.392924185330E-11          
AS E09       2019 01 14 06 00  0.000000  2    0.655879199961E-02  0.424841934489E-11          
AS E11       2019 01 14 06 00  0.000000  2    0.571974653797E-02  0.428057029634E-11          
AS E12       2019 01 14 06 00  0.000000  2    0.593853526595E-02  0.402030561066E-11          
AS E13       2019 01 14 06 00  0.000000  2    0.381703866319E-03  0.422926061776E-11          
AS E14       2019 01 14 06 00  0.000000  2    0.646017847433E-02  0.416119144533E-11          
AS E15       2019 01 14 06 00  0.000000  2    0.923007559392E-03  0.443500114048E-11          
AS E18       2019 01 14 06 00  0.000000  2    0.560765992632E-02  0.416534342862E-11          
AS E19       2019 01 14 06 00  0.000000  2   -0.914215093110E-05  0.401116248243E-11          
AS E21       2019 01 14 06 00  0.000000  2   -0.514350310856E-03  0.422511532914E-11          
AS E24       2019 01 14 06 00  0.000000  2    0.628692566119E-02  0.405261835708E-11          
AS E25       2019 01 14 06 00  0.000000  2    0.192437768929E-02  0.419460019870E-11          
AS E26       2019 01 14 06 00  0.000000  2    0.502181966094E-02  0.377012563342E-11          
AS E27       2019 01 14 06 00  0.000000  2    0.550083556788E-03  0.412271772643E-11          
AS E30       2019 01 14 06 00  0.000000  2    0.518996805200E-02  0.406832497839E-11          
AS E31       2019 01 14 06 00  0.000000  2    0.933096078847E-03  0.423704631768E-11          
AS E33       2019 01 14 06 00  0.000000  2    0.847910963259E-03  0.406855270862E-11          
AS E36       2019 01 14 06 00  0.000000  2    0.759866893150E-03  0.514628557902E-11          
AS G01       2019 01 14 06 00  0.000000  2   -0.145071150119E-03  0.264522786158E-11          
AS G02       2019 01 14 06 00  0.000000  2   -0.112615787949E-03  0.289254510793E-11          
AS G03       2019 01 14 06 00  0.000000  2    0.177064456785E-03  0.261910831894E-11          
AS G04       2019 01 14 06 00  0.000000  2    0.822580825265E-04  0.110412356725E-10          
AS G05       2019 01 14 06 00  0.000000  2    0.801468184261E-06  0.324380189881E-11          
AS G06       2019 01 14 06 00  0.000000  2    0.297243408255E-03  0.272516484032E-11          
AS G07       2019 01 14 06 00  0.000000  2    0.520421482217E-04  0.311858785574E-11          
AS G08       2019 01 14 06 00  0.000000  2   -0.129000800031E-03  0.315700402889E-11          
AS G09       2019 01 14 06 00  0.000000  2    0.471941183511E-03  0.297536171967E-11          
AS G10       2019 01 14 06 00  0.000000  2    0.135890159726E-03  0.286409569157E-11          
AS G11       2019 01 14 06 00  0.000000  2   -0.675565907842E-03  0.270725921603E-11          
AS G12       2019 01 14 06 00  0.000000  2    0.276512192542E-03  0.278623012650E-11          
AS G13       2019 01 14 06 00  0.000000  2   -0.783770067376E-04  0.321818500638E-11          
AS G14       2019 01 14 06 00  0.000000  2   -0.931821960230E-04  0.270119683152E-11          
AS G15       2019 01 14 06 00  0.000000  2   -0.332313341169E-03  0.297745303652E-11          
AS G16       2019 01 14 06 00  0.000000  2   -0.126198950478E-04  0.305471218741E-11          
AS G17       2019 01 14 06 00  0.000000  2   -0.499904400167E-05  0.263563713124E-11          
AS G18       2019 01 14 06 00  0.000000  2    0.156048197183E-04  0.273812201143E-11          
AS G19       2019 01 14 06 00  0.000000  2   -0.363546382977E-03  0.266331878385E-11          
AS G20       2019 01 14 06 00  0.000000  2    0.521102221326E-03  0.286349391842E-11          
AS G21       2019 01 14 06 00  0.000000  2   -0.269439086015E-03  0.293459224259E-11          
AS G22       2019 01 14 06 00  0.000000  2   -0.622301133538E-03  0.265876509920E-11          
AS G23       2019 01 14 06 00  0.000000  2   -0.200582944023E-03  0.274276730447E-11          
AS G24       2019 01 14 06 00  0.000000  2   -0.607703380352E-04  0.287991536146E-11          
AS G25       2019 01 14 06 00  0.000000  2   -0.705644279156E-03  0.286215031277E-11          
AS G26       2019 01 14 06 00  0.000000  2    0.958765436887E-04  0.299364672016E-11          
AS G27       2019 01 14 06 00  0.000000  2   -0.487182679101E-04  0.317705377391E-11          
AS G28       2019 01 14 06 00  0.000000  2    0.761868945607E-03  0.282624991133E-11          
AS G29       2019 01 14 06 00  0.000000  2    0.293702497890E-03  0.289920723420E-11          
AS G30       2019 01 14 06 00  0.000000  2   -0.356006670435E-04  0.307058206819E-11          
AS G31       2019 01 14 06 00  0.000000  2    0.658948782870E-04  0.277176586722E-11          
AS G32       2019 01 14 06 00  0.000000  2   -0.275591784506E-03  0.278329218891E-11          
AS R01       2019 01 14 06 00  0.000000  2    0.379095841671E-04  0.861973430735E-11          
AS R02       2019 01 14 06 00  0.000000  2    0.349291381188E-03  0.845323914585E-11          
AS R03       2019 01 14 06 00  0.000000  2    0.154472184754E-03  0.848669513158E-11          
AS R04       2019 01 14 06 00  0.000000  2    0.291236964143E-03  0.838146832379E-11          
AS R05       2019 01 14 06 00  0.000000  2    0.199213061778E-04  0.838279253977E-11          
AS R07       2019 01 14 06 00  0.000000  2   -0.558125434485E-04  0.849685684137E-11          
AS R08       2019 01 14 06 00  0.000000  2    0.195647592128E-04  0.864726525459E-11          
AS R09       2019 01 14 06 00  0.000000  2    0.489020613292E-04  0.844711527218E-11          
AS R10       2019 01 14 06 00  0.000000  2    0.396111079147E-04  0.860174431555E-11          
AS R11       2019 01 14 06 00  0.000000  2   -0.534413831406E-04  0.855221425621E-11          
AS R13       2019 01 14 06 00  0.000000  2   -0.189734132803E-04  0.869020576894E-11          
AS R14       2019 01 14 06 00  0.000000  2    0.349235471981E-04  0.857950844473E-11          
AS R15       2019 01 14 06 00  0.000000  2    0.992915718841E-04  0.854859445399E-11          
AS R16       2019 01 14 06 00  0.000000  2   -0.116484179370E-04  0.847399085935E-11          
AS R17       2019 01 14 06 00  0.000000  2    0.196026143417E-03  0.821576790089E-11          
AS R18       2019 01 14 06 00  0.000000  2    0.299104878197E-04  0.826250459895E-11          
AS R19       2019 01 14 06 00  0.000000  2   -0.621257379922E-04  0.848163230233E-11          
AS R20       2019 01 14 06 00  0.000000  2   -0.365546229926E-03  0.865390511178E-11          
AS R21       2019 01 14 06 00  0.000000  2   -0.254698404024E-04  0.882234051263E-11          
AS R22       2019 01 14 06 00  0.000000  2   -0.643042843466E-04  0.864774590880E-11          
AS R23       2019 01 14 06 00  0.000000  2    0.203115978722E-03  0.865789775175E-11          
AS R24       2019 01 14 06 00  0.000000  2   -0.176015243490E-03  0.883521332264E-11          
AS R26       2019 01 14 06 00  0.000000  2    0.159085240456E-04  0.159570607276E-10          
AR PIE100USA 2019 01 14 06 00 30.000000  1   -0.434555361126E-03                              
AS E01       2019 01 14 06 00 30.000000  1   -0.520392958795E-03                              
AS E02       2019 01 14 06 00 30.000000  1    0.432509133059E-04                              
AS E03       2019 01 14 06 00 30.000000  1   -0.121980190614E-03                              
AS E04       2019 01 14 06 00 30.000000  1   -0.199675404659E-03                              
AS E05       2019 01 14 06 00 30.000000  1    0.125368825082E-03                              
AS E07       2019 01 14 06 00 30.000000  1   -0.112247126070E-03                              
AS E08       2019 01 14 06 00 30.000000  1    0.642378041499E-02                              
AS E09       2019 01 14 06 00 30.000000  1    0.655879165832E-02                              
AS E11       2019 01 14 06 00 30.000000  1    0.571974656338E-02                              
AS E12       2019 01 14 06 00 30.000000  1    0.593853779577E-02                              
AS E13       2019 01 14 06 00 30.000000  1    0.381703879058E-03                              
AS E14       2019 01 14 06 00 30.000000  1    0.646017831696E-02                              
AS E15       2019 01 14 06 00 30.000000  1    0.923007538135E-03                              
AS E18       2019 01 14 06 00 30.000000  1    0.560765906579E-02                              
AS E19       2019 01 14 06 00 30.000000  1   -0.914214351869E-05                              
AS E21       2019 01 14 06 00 30.000000  1   -0.514350365229E-03                              
AS E24       2019 01 14 06 00 30.000000  1    0.628692507006E-02                              
AS E25       2019 01 14 06 00 30.000000  1    0.192437734680E-02                              
AS E26       2019 01 14 06 00 30.000000  1    0.502181836141E-02                              
AS E27       2019 01 14 06 00 30.000000  1    0.550083330574E-03                              
AS E30       2019 01 14 06 00 30.000000  1    0.518996713192E-02                              
AS E31       2019 01 14 06 00 30.000000  1    0.933095785748E-03                              
AS E33       2019 01 14 06 00 30.000000  1    0.847910955246E-03                              
AS E36       2019 01 14 06 00 30.000000  1    0.759866755192E-03                              
AS G01       2019 01 14 06 00 30.000000  1   -0.145071334224E-03                              
AS G02       2019 01 14 06 00 30.000000  1   -0.112616182247E-03                              
AS G03       2019 01 14 06 00 30.000000  1    0.177064526620E-03                              
AS G04       2019 01 14 06 00 30.000000  1    0.822585066484E-04                              
AS G05       2019 01 14 06 00 30.000000  1    0.801441544036E-06                              
AS G06       2019 01 14 06 00 30.000000  1    0.297243187557E-03                              
AS G07       2019 01 14 06 00 30.000000  1    0.520419332450E-04                              
AS G08       2019 01 14 06 00 30.000000  1   -0.129000786815E-03                              
AS G09       2019 01 14 06 00 30.000000  1    0.471941042679E-03                              
AS G10       2019 01 14 06 00 30.000000  1    0.135889971929E-03                              
AS G11       2019 01 14 06 00 30.000000  1   -0.675565785429E-03                              
AS G12       2019 01 14 06 00 30.000000  1    0.276512115709E-03                              
AS G13       2019 01 14 06 00 30.000000  1   -0.783770082793E-04                              
AS G14       2019 01 14 06 00 30.000000  1   -0.931823075058E-04                              
AS G15       2019 01 14 06 00 30.000000  1   -0.332313399990E-03                              
AS G16       2019 01 14 06 00 30.000000  1   -0.126199765731E-04                              
AS G17       2019 01 14 06 00 30.000000  1   -0.499888272499E-05                              
AS G18       2019 01 14 06 00 30.000000  1    0.156048825731E-04                              
AS G19       2019 01 14 06 00 30.000000  1   -0.363546220925E-03                              
AS G20       2019 01 14 06 00 30.000000  1    0.521102262301E-03                              
AS G21       2019 01 14 06 00 30.000000  1   -0.269438972964E-03                              
AS G22       2019 01 14 06 00 30.000000  1   -0.622301538084E-03                              
AS G23       2019 01 14 06 00 30.000000  1   -0.200582887843E-03                              
AS G24       2019 01 14 06 00 30.000000  1   -0.607703027991E-04                              
AS G25       2019 01 14 06 00 30.000000  1   -0.705644443578E-03                              
AS G26       2019 01 14 06 00 30.000000  1    0.958768699476E-04                              
AS G27       2019 01 14 06 00 30.000000  1   -0.487184671098E-04                              
AS G28       2019 01 14 06 00 30.000000  1    0.761868968518E-03                              
AS G29       2019 01 14 06 00 30.000000  1    0.293702118640E-03                              
AS G30       2019 01 14 06 00 30.000000  1   -0.356008503463E-04                              
AS G31       2019 01 14 06 00 30.000000  1    0.658947626075E-04                              
AS G32       2019 01 14 06 00 30.000000  1   -0.275591268987E-03                              
AS R01       2019 01 14 06 00 30.000000  1    0.379097065807E-04                              
AS R02       2019 01 14 06 00 30.000000  1    0.349291414595E-03                              
AS R03       2019 01 14 06 00 30.000000  1    0.154472137020E-03                              
AS R04       2019 01 14 06 00 30.000000  1    0.291236927455E-03                              
AS R05       2019 01 14 06 00 30.000000  1    0.199213025088E-04                              
AS R07       2019 01 14 06 00 30.000000  1   -0.558125155734E-04                              
AS R08       2019 01 14 06 00 30.000000  1    0.195647386666E-04                              
AS R09       2019 01 14 06 00 30.000000  1    0.489021735700E-04                              
AS R10       2019 01 14 06 00 30.000000  1    0.396109024768E-04                              
AS R11       2019 01 14 06 00 30.000000  1   -0.534414127054E-04                              
AS R13       2019 01 14 06 00 30.000000  1   -0.189737164348E-04                              
AS R14       2019 01 14 06 00 30.000000  1    0.349235564542E-04                              
AS R15       2019 01 14 06 00 30.000000  1    0.992915464435E-04                              
AS R16       2019 01 14 06 00 30.000000  1   -0.116484406307E-04                              
AS R17       2019 01 14 06 00 30.000000  1    0.196026188499E-03                              
AS R18       2019 01 14 06 00 30.000000  1    0.299105227694E-04                              
AS R19       2019 01 14 06 00 30.000000  1   -0.621255564639E-04                              
AS R20       2019 01 14 06 00 30.000000  1   -0.365546281670E-03                              
AS R21       2019 01 14 06 00 30.000000  1   -0.254699088201E-04                              
AS R22       2019 01 14 06 00 30.000000  1   -0.643042823270E-04                              
AS R23       2019 01 14 06 00 30.000000  1    0.203116049140E-03                              
AS R24       2019 01 14 06 00 30.000000  1   -0.176015352970E-03                              
AS R26       2019 01 14 06 00 30.000000  1    0.159085952150E-04                              
AR PIE100USA 2019 01 14 06 01  0.000000  1   -0.434555377210E-03                              
AS E01       2019 01 14 06 01  0.000000  1   -0.520393197627E-03                              
AS E02       2019 01 14 06 01  0.000000  1    0.432509687851E-04                              
AS E03       2019 01 14 06 01  0.000000  1   -0.121980319455E-03                              
AS E04       2019 01 14 06 01  0.000000  1   -0.199675638248E-03                              
AS E05       2019 01 14 06 01  0.000000  1    0.125368619077E-03                              
AS E07       2019 01 14 06 01  0.000000  1   -0.112247346722E-03                              
AS E08       2019 01 14 06 01  0.000000  1    0.642378018946E-02                              
AS E09       2019 01 14 06 01  0.000000  1    0.655879131398E-02                              
AS E11       2019 01 14 06 01  0.000000  1    0.571974657477E-02                              
AS E12       2019 01 14 06 01  0.000000  1    0.593854032177E-02                              
AS E13       2019 01 14 06 01  0.000000  1    0.381703886619E-03                              
AS E14       2019 01 14 06 01  0.000000  1    0.646017814189E-02                              
AS E15       2019 01 14 06 01  0.000000  1    0.923007501566E-03                              
AS E18       2019 01 14 06 01  0.000000  1    0.560765820377E-02                              
AS E19       2019 01 14 06 01  0.000000  1   -0.914214695766E-05                              
AS E21       2019 01 14 06 01  0.000000  1   -0.514350424484E-03                              
AS E24       2019 01 14 06 01  0.000000  1    0.628692447822E-02                              
AS E25       2019 01 14 06 01  0.000000  1    0.192437700061E-02                              
AS E26       2019 01 14 06 01  0.000000  1    0.502181705703E-02                              
AS E27       2019 01 14 06 01  0.000000  1    0.550083097265E-03                              
AS E30       2019 01 14 06 01  0.000000  1    0.518996622282E-02                              
AS E31       2019 01 14 06 01  0.000000  1    0.933095484002E-03                              
AS E33       2019 01 14 06 01  0.000000  1    0.847910945674E-03                              
AS E36       2019 01 14 06 01  0.000000  1    0.759866625182E-03                              
AS G01       2019 01 14 06 01  0.000000  1   -0.145071539833E-03                              
AS G02       2019 01 14 06 01  0.000000  1   -0.112616567571E-03                              
AS G03       2019 01 14 06 01  0.000000  1    0.177064596382E-03                              
AS G04       2019 01 14 06 01  0.000000  1    0.822589234455E-04                              
AS G05       2019 01 14 06 01  0.000000  1    0.801516577642E-06                              
AS G06       2019 01 14 06 01  0.000000  1    0.297242958090E-03                              
AS G07       2019 01 14 06 01  0.000000  1    0.520417629636E-04                              
AS G08       2019 01 14 06 01  0.000000  1   -0.129000666274E-03                              
AS G09       2019 01 14 06 01  0.000000  1    0.471940892424E-03                              
AS G10       2019 01 14 06 01  0.000000  1    0.135889779577E-03                              
AS G11       2019 01 14 06 01  0.000000  1   -0.675565562472E-03                              
AS G12       2019 01 14 06 01  0.000000  1    0.276512271619E-03                              
AS G13       2019 01 14 06 01  0.000000  1   -0.783769274257E-04                              
AS G14       2019 01 14 06 01  0.000000  1   -0.931821967246E-04                              
AS G15       2019 01 14 06 01  0.000000  1   -0.332313387986E-03                              
AS G16       2019 01 14 06 01  0.000000  1   -0.126199192415E-04                              
AS G17       2019 01 14 06 01  0.000000  1   -0.499878802267E-05                              
AS G18       2019 01 14 06 01  0.000000  1    0.156050168447E-04                              
AS G19       2019 01 14 06 01  0.000000  1   -0.363546125352E-03                              
AS G20       2019 01 14 06 01  0.000000  1    0.521102279909E-03                              
AS G21       2019 01 14 06 01  0.000000  1   -0.269438767849E-03                              
AS G22       2019 01 14 06 01  0.000000  1   -0.622301762306E-03                              
AS G23       2019 01 14 06 01  0.000000  1   -0.200582822794E-03                              
AS G24       2019 01 14 06 01  0.000000  1   -0.607703870756E-04                              
AS G25       2019 01 14 06 01  0.000000  1   -0.705644609846E-03                              
AS G26       2019 01 14 06 01  0.000000  1    0.958771778444E-04                              
AS G27       2019 01 14 06 01  0.000000  1   -0.487186748514E-04                              
AS G28       2019 01 14 06 01  0.000000  1    0.761869021668E-03                              
AS G29       2019 01 14 06 01  0.000000  1    0.293701971437E-03                              
AS G30       2019 01 14 06 01  0.000000  1   -0.356010514077E-04                              
AS G31       2019 01 14 06 01  0.000000  1    0.658946572903E-04                              
AS G32       2019 01 14 06 01  0.000000  1   -0.275590759591E-03                              
AS R01       2019 01 14 06 01  0.000000  1    0.379097514387E-04                              
AS R02       2019 01 14 06 01  0.000000  1    0.349291495411E-03                              
AS R03       2019 01 14 06 01  0.000000  1    0.154472063019E-03                              
AS R04       2019 01 14 06 01  0.000000  1    0.291236930108E-03                              
AS R05       2019 01 14 06 01  0.000000  1    0.199213336828E-04                              
AS R07       2019 01 14 06 01  0.000000  1   -0.558125505924E-04                              
AS R08       2019 01 14 06 01  0.000000  1    0.195647165396E-04                              
AS R09       2019 01 14 06 01  0.000000  1    0.489022183558E-04                              
AS R10       2019 01 14 06 01  0.000000  1    0.396109603032E-04                              
AS R11       2019 01 14 06 01  0.000000  1   -0.534414477783E-04                              
AS R13       2019 01 14 06 01  0.000000  1   -0.189738064127E-04                              
AS R14       2019 01 14 06 01  0.000000  1    0.349235533528E-04                              
AS R15       2019 01 14 06 01  0.000000  1    0.992915516553E-04                              
AS R16       2019 01 14 06 01  0.000000  1   -0.116484244115E-04                              
AS R17       2019 01 14 06 01  0.000000  1    0.196026301991E-03                              
AS R18       2019 01 14 06 01  0.000000  1    0.299105653766E-04                              
AS R19       2019 01 14 06 01  0.000000  1   -0.621251553513E-04                              
AS R20       2019 01 14 06 01  0.000000  1   -0.365546206022E-03                              
AS R21       2019 01 14 06 01  0.000000  1   -0.254699100012E-04                              
AS R22       2019 01 14 06 01  0.000000  1   -0.643043617096E-04                              
AS R23       2019 01 14 06 01  0.000000  1    0.203116103839E-03                              
AS R24       2019 01 14 06 01  0.000000  1   -0.176015354288E-03                              
AS R26       2019 01 14 06 01  0.000000  1    0.159105538839E-04                              
AR PIE100USA 2019 01 14 06 01 30.000000  1   -0.434555393294E-03                              
AS E01       2019 01 14 06 01 30.000000  1   -0.520393436571E-03                              
AS E02       2019 01 14 06 01 30.000000  1    0.432510220564E-04                              
AS E03       2019 01 14 06 01 30.000000  1   -0.121980444464E-03                              
AS E04       2019 01 14 06 01 30.000000  1   -0.199675859588E-03                              
AS E05       2019 01 14 06 01 30.000000  1    0.125368423555E-03                              
AS E07       2019 01 14 06 01 30.000000  1   -0.112247555195E-03                              
AS E08       2019 01 14 06 01 30.000000  1    0.642377997490E-02                              
AS E09       2019 01 14 06 01 30.000000  1    0.655879098516E-02                              
AS E11       2019 01 14 06 01 30.000000  1    0.571974659731E-02                              
AS E12       2019 01 14 06 01 30.000000  1    0.593854285477E-02                              
AS E13       2019 01 14 06 01 30.000000  1    0.381703907780E-03                              
AS E14       2019 01 14 06 01 30.000000  1    0.646017797817E-02                              
AS E15       2019 01 14 06 01 30.000000  1    0.923007470238E-03                              
AS E18       2019 01 14 06 01 30.000000  1    0.560765735562E-02                              
AS E19       2019 01 14 06 01 30.000000  1   -0.914212360566E-05                              
AS E21       2019 01 14 06 01 30.000000  1   -0.514350474538E-03                              
AS E24       2019 01 14 06 01 30.000000  1    0.628692388818E-02                              
AS E25       2019 01 14 06 01 30.000000  1    0.192437666207E-02                              
AS E26       2019 01 14 06 01 30.000000  1    0.502181577150E-02                              
AS E27       2019 01 14 06 01 30.000000  1    0.550082871317E-03                              
AS E30       2019 01 14 06 01 30.000000  1    0.518996530065E-02                              
AS E31       2019 01 14 06 01 30.000000  1    0.933095196566E-03                              
AS E33       2019 01 14 06 01 30.000000  1    0.847910955121E-03                              
AS E36       2019 01 14 06 01 30.000000  1    0.759866497344E-03                              
AS G01       2019 01 14 06 01 30.000000  1   -0.145071722028E-03                              
AS G02       2019 01 14 06 01 30.000000  1   -0.112616939816E-03                              
AS G03       2019 01 14 06 01 30.000000  1    0.177064672818E-03                              
AS G04       2019 01 14 06 01 30.000000  1    0.822593577070E-04                              
AS G05       2019 01 14 06 01 30.000000  1    0.801616373649E-06                              
AS G06       2019 01 14 06 01 30.000000  1    0.297242734027E-03                              
AS G07       2019 01 14 06 01 30.000000  1    0.520415816447E-04                              
AS G08       2019 01 14 06 01 30.000000  1   -0.129000653713E-03                              
AS G09       2019 01 14 06 01 30.000000  1    0.471940763450E-03                              
AS G10       2019 01 14 06 01 30.000000  1    0.135889583878E-03                              
AS G11       2019 01 14 06 01 30.000000  1   -0.675565285329E-03                              
AS G12       2019 01 14 06 01 30.000000  1    0.276512378949E-03                              
AS G13       2019 01 14 06 01 30.000000  1   -0.783766989690E-04                              
AS G14       2019 01 14 06 01 30.000000  1   -0.931820342984E-04                              
AS G15       2019 01 14 06 01 30.000000  1   -0.332313389413E-03                              
AS G16       2019 01 14 06 01 30.000000  1   -0.126201847306E-04                              
AS G17       2019 01 14 06 01 30.000000  1   -0.499867531480E-05                              
AS G18       2019 01 14 06 01 30.000000  1    0.156051141342E-04                              
AS G19       2019 01 14 06 01 30.000000  1   -0.363545948897E-03                              
AS G20       2019 01 14 06 01 30.000000  1    0.521102359068E-03                              
AS G21       2019 01 14 06 01 30.000000  1   -0.269438497160E-03                              
AS G22       2019 01 14 06 01 30.000000  1   -0.622301835218E-03                              
AS G23       2019 01 14 06 01 30.000000  1   -0.200582852266E-03                              
AS G24       2019 01 14 06 01 30.000000  1   -0.607704742591E-04                              
AS G25       2019 01 14 06 01 30.000000  1   -0.705644778155E-03                              
AS G26       2019 01 14 06 01 30.000000  1    0.958775029031E-04                              
AS G27       2019 01 14 06 01 30.000000  1   -0.487188678837E-04                              
AS G28       2019 01 14 06 01 30.000000  1    0.761868998121E-03                              
AS G29       2019 01 14 06 01 30.000000  1    0.293701878721E-03                              
AS G30       2019 01 14 06 01 30.000000  1   -0.356012322735E-04                              
AS G31       2019 01 14 06 01 30.000000  1    0.658945701688E-04                              
AS G32       2019 01 14 06 01 30.000000  1   -0.275590239612E-03                              
AS R01       2019 01 14 06 01 30.000000  1    0.379097075613E-04                              
AS R02       2019 01 14 06 01 30.000000  1    0.349291609717E-03                              
AS R03       2019 01 14 06 01 30.000000  1    0.154472020883E-03                              
AS R04       2019 01 14 06 01 30.000000  1    0.291236821222E-03                              
AS R05       2019 01 14 06 01 30.000000  1    0.199213766614E-04                              
AS R07       2019 01 14 06 01 30.000000  1   -0.558125666398E-04                              
AS R08       2019 01 14 06 01 30.000000  1    0.195647094817E-04                              
AS R09       2019 01 14 06 01 30.000000  1    0.489023604542E-04                              
AS R10       2019 01 14 06 01 30.000000  1    0.396108117001E-04                              
AS R11       2019 01 14 06 01 30.000000  1   -0.534415157687E-04                              
AS R13       2019 01 14 06 01 30.000000  1   -0.189738653723E-04                              
AS R14       2019 01 14 06 01 30.000000  1    0.349235622129E-04                              
AS R15       2019 01 14 06 01 30.000000  1    0.992915231662E-04                              
AS R16       2019 01 14 06 01 30.000000  1   -0.116483870440E-04                              
AS R17       2019 01 14 06 01 30.000000  1    0.196026387566E-03                              
AS R18       2019 01 14 06 01 30.000000  1    0.299106044663E-04                              
AS R19       2019 01 14 06 01 30.000000  1   -0.621247686348E-04                              
AS R20       2019 01 14 06 01 30.000000  1   -0.365546195230E-03                              
AS R21       2019 01 14 06 01 30.000000  1   -0.254699570411E-04                              
AS R22       2019 01 14 06 01 30.000000  1   -0.643043774568E-04                              
AS R23       2019 01 14 06 01 30.000000  1    0.203116145740E-03                              
AS R24       2019 01 14 06 01 30.000000  1   -0.176015321407E-03                              
AS R26       2019 01 14 06 01 30.000000  1    0.159105309622E-04                              
AR PIE100USA 2019 01 14 06 02  0.000000  1   -0.434555409378E-03                              
AS E01       2019 01 14 06 02  0.000000  1   -0.520393690221E-03                              
AS E02       2019 01 14 06 02  0.000000  1    0.432510667746E-04                              
AS E03       2019 01 14 06 02  0.000000  1   -0.121980584305E-03                              
AS E04       2019 01 14 06 02  0.000000  1   -0.199676105635E-03                              
AS E05       2019 01 14 06 02  0.000000  1    0.125368225043E-03                              
AS E07       2019 01 14 06 02  0.000000  1   -0.112247773093E-03                              
AS E08       2019 01 14 06 02  0.000000  1    0.642377974206E-02                              
AS E09       2019 01 14 06 02  0.000000  1    0.655879063890E-02                              
AS E11       2019 01 14 06 02  0.000000  1    0.571974661328E-02                              
AS E12       2019 01 14 06 02  0.000000  1    0.593854537557E-02                              
AS E13       2019 01 14 06 02  0.000000  1    0.381703914307E-03                              
AS E14       2019 01 14 06 02  0.000000  1    0.646017779840E-02                              
AS E15       2019 01 14 06 02  0.000000  1    0.923007430391E-03                              
AS E18       2019 01 14 06 02  0.000000  1    0.560765649173E-02                              
AS E19       2019 01 14 06 02  0.000000  1   -0.914212351783E-05                              
AS E21       2019 01 14 06 02  0.000000  1   -0.514350536291E-03                              
AS E24       2019 01 14 06 02  0.000000  1    0.628692329341E-02                              
AS E25       2019 01 14 06 02  0.000000  1    0.192437631806E-02                              
AS E26       2019 01 14 06 02  0.000000  1    0.502181446894E-02                              
AS E27       2019 01 14 06 02  0.000000  1    0.550082636526E-03                              
AS E30       2019 01 14 06 02  0.000000  1    0.518996437901E-02                              
AS E31       2019 01 14 06 02  0.000000  1    0.933094900228E-03                              
AS E33       2019 01 14 06 02  0.000000  1    0.847910946097E-03                              
AS E36       2019 01 14 06 02  0.000000  1    0.759866351002E-03                              
AS G01       2019 01 14 06 02  0.000000  1   -0.145071908407E-03                              
AS G02       2019 01 14 06 02  0.000000  1   -0.112617310474E-03                              
AS G03       2019 01 14 06 02  0.000000  1    0.177064741961E-03                              
AS G04       2019 01 14 06 02  0.000000  1    0.822597637016E-04                              
AS G05       2019 01 14 06 02  0.000000  1    0.801541098743E-06                              
AS G06       2019 01 14 06 02  0.000000  1    0.297242502037E-03                              
AS G07       2019 01 14 06 02  0.000000  1    0.520413247769E-04                              
AS G08       2019 01 14 06 02  0.000000  1   -0.129000763097E-03                              
AS G09       2019 01 14 06 02  0.000000  1    0.471940619528E-03                              
AS G10       2019 01 14 06 02  0.000000  1    0.135889373600E-03                              
AS G11       2019 01 14 06 02  0.000000  1   -0.675565145866E-03                              
AS G12       2019 01 14 06 02  0.000000  1    0.276512366339E-03                              
AS G13       2019 01 14 06 02  0.000000  1   -0.783766225635E-04                              
AS G14       2019 01 14 06 02  0.000000  1   -0.931819613863E-04                              
AS G15       2019 01 14 06 02  0.000000  1   -0.332313244665E-03                              
AS G16       2019 01 14 06 02  0.000000  1   -0.126205049607E-04                              
AS G17       2019 01 14 06 02  0.000000  1   -0.499833374351E-05                              
AS G18       2019 01 14 06 02  0.000000  1    0.156052197931E-04                              
AS G19       2019 01 14 06 02  0.000000  1   -0.363545622262E-03                              
AS G20       2019 01 14 06 02  0.000000  1    0.521102259346E-03                              
AS G21       2019 01 14 06 02  0.000000  1   -0.269438355835E-03                              
AS G22       2019 01 14 06 02  0.000000  1   -0.622302055435E-03                              
AS G23       2019 01 14 06 02  0.000000  1   -0.200582796824E-03                              
AS G24       2019 01 14 06 02  0.000000  1   -0.607705466601E-04                              
AS G25       2019 01 14 06 02  0.000000  1   -0.705644958759E-03                              
AS G26       2019 01 14 06 02  0.000000  1    0.958778216054E-04                              
AS G27       2019 01 14 06 02  0.000000  1   -0.487190689843E-04                              
AS G28       2019 01 14 06 02  0.000000  1    0.761869200249E-03                              
AS G29       2019 01 14 06 02  0.000000  1    0.293701587350E-03                              
AS G30       2019 01 14 06 02  0.000000  1   -0.356014105331E-04                              
AS G31       2019 01 14 06 02  0.000000  1    0.658945279713E-04                              
AS G32       2019 01 14 06 02  0.000000  1   -0.275589731888E-03                              
AS R01       2019 01 14 06 02  0.000000  1    0.379097539668E-04                              
AS R02       2019 01 14 06 02  0.000000  1    0.349291567914E-03                              
AS R03       2019 01 14 06 02  0.000000  1    0.154472243891E-03                              
AS R04       2019 01 14 06 02  0.000000  1    0.291236788067E-03                              
AS R05       2019 01 14 06 02  0.000000  1    0.199213756983E-04                              
AS R07       2019 01 14 06 02  0.000000  1   -0.558124764719E-04                              
AS R08       2019 01 14 06 02  0.000000  1    0.195647164796E-04                              
AS R09       2019 01 14 06 02  0.000000  1    0.489025106616E-04                              
AS R10       2019 01 14 06 02  0.000000  1    0.396109060594E-04                              
AS R11       2019 01 14 06 02  0.000000  1   -0.534415093457E-04                              
AS R13       2019 01 14 06 02  0.000000  1   -0.189740509973E-04                              
AS R14       2019 01 14 06 02  0.000000  1    0.349235491323E-04                              
AS R15       2019 01 14 06 02  0.000000  1    0.992915532863E-04                              
AS R16       2019 01 14 06 02  0.000000  1   -0.116483301719E-04                              
AS R17       2019 01 14 06 02  0.000000  1    0.196026497872E-03                              
AS R18       2019 01 14 06 02  0.000000  1    0.299106095292E-04                              
AS R19       2019 01 14 06 02  0.000000  1   -0.621250504591E-04                              
AS R20       2019 01 14 06 02  0.000000  1   -0.365546253440E-03                              
AS R21       2019 01 14 06 02  0.000000  1   -0.254700456517E-04                              
AS R22       2019 01 14 06 02  0.000000  1   -0.643044041134E-04                              
AS R23       2019 01 14 06 02  0.000000  1    0.203116152361E-03                              
AS R24       2019 01 14 06 02  0.000000  1   -0.176015326236E-03                              
AS R26       2019 01 14 06 02  0.000000  1    0.159101290251E-04                              
AR PIE100USA 2019 01 14 06 02 30.000000  1   -0.434555425462E-03                              
AS E01       2019 01 14 06 02 30.000000  1   -0.520393926670E-03                              
AS E02       2019 01 14 06 02 30.000000  1    0.432511080890E-04                              
AS E03       2019 01 14 06 02 30.000000  1   -0.121980703381E-03                              
AS E04       2019 01 14 06 02 30.000000  1   -0.199676329268E-03                              
AS E05       2019 01 14 06 02 30.000000  1    0.125368029053E-03                              
AS E07       2019 01 14 06 02 30.000000  1   -0.112247980425E-03                              
AS E08       2019 01 14 06 02 30.000000  1    0.642377952076E-02                              
AS E09       2019 01 14 06 02 30.000000  1    0.655879030253E-02                              
AS E11       2019 01 14 06 02 30.000000  1    0.571974663021E-02                              
AS E12       2019 01 14 06 02 30.000000  1    0.593854790466E-02                              
AS E13       2019 01 14 06 02 30.000000  1    0.381703934152E-03                              
AS E14       2019 01 14 06 02 30.000000  1    0.646017763090E-02                              
AS E15       2019 01 14 06 02 30.000000  1    0.923007394143E-03                              
AS E18       2019 01 14 06 02 30.000000  1    0.560765564712E-02                              
AS E19       2019 01 14 06 02 30.000000  1   -0.914210916292E-05                              
AS E21       2019 01 14 06 02 30.000000  1   -0.514350588811E-03                              
AS E24       2019 01 14 06 02 30.000000  1    0.628692270343E-02                              
AS E25       2019 01 14 06 02 30.000000  1    0.192437597887E-02                              
AS E26       2019 01 14 06 02 30.000000  1    0.502181317316E-02                              
AS E27       2019 01 14 06 02 30.000000  1    0.550082407534E-03                              
AS E30       2019 01 14 06 02 30.000000  1    0.518996346451E-02                              
AS E31       2019 01 14 06 02 30.000000  1    0.933094615842E-03                              
